{
  "contractName": "ChainTraze",
  "abi": [
    {
      "anonymous": false,
      "inputs": [
        {
          "indexed": false,
          "name": "id",
          "type": "string"
        },
        {
          "indexed": false,
          "name": "x",
          "type": "int256"
        },
        {
          "indexed": false,
          "name": "y",
          "type": "int256"
        },
        {
          "indexed": false,
          "name": "reward",
          "type": "int256"
        },
        {
          "indexed": false,
          "name": "totalReward",
          "type": "int256"
        },
        {
          "indexed": false,
          "name": "remarks",
          "type": "string"
        }
      ],
      "name": "Position",
      "type": "event"
    },
    {
      "anonymous": false,
      "inputs": [
        {
          "indexed": false,
          "name": "message",
          "type": "string"
        }
      ],
      "name": "Error",
      "type": "event"
    },
    {
      "anonymous": false,
      "inputs": [
        {
          "indexed": false,
          "name": "id",
          "type": "string"
        }
      ],
      "name": "IdAlreadyExistsError",
      "type": "event"
    },
    {
      "anonymous": false,
      "inputs": [
        {
          "indexed": false,
          "name": "id",
          "type": "string"
        }
      ],
      "name": "IdDoesNotExistError",
      "type": "event"
    },
    {
      "anonymous": false,
      "inputs": [
        {
          "indexed": false,
          "name": "id",
          "type": "string"
        }
      ],
      "name": "IdDoesNotBelongToSender",
      "type": "event"
    },
    {
      "anonymous": false,
      "inputs": [
        {
          "indexed": false,
          "name": "id",
          "type": "string"
        },
        {
          "indexed": false,
          "name": "x",
          "type": "int256"
        },
        {
          "indexed": false,
          "name": "y",
          "type": "int256"
        }
      ],
      "name": "PositionIsNotFreeError",
      "type": "event"
    },
    {
      "anonymous": false,
      "inputs": [
        {
          "indexed": false,
          "name": "id",
          "type": "string"
        },
        {
          "indexed": false,
          "name": "x",
          "type": "int256"
        },
        {
          "indexed": false,
          "name": "y",
          "type": "int256"
        }
      ],
      "name": "PositionIsOutsideOfFieldError",
      "type": "event"
    },
    {
      "anonymous": false,
      "inputs": [
        {
          "indexed": false,
          "name": "id",
          "type": "string"
        }
      ],
      "name": "IdNotValid",
      "type": "event"
    },
    {
      "constant": true,
      "inputs": [
        {
          "name": "x",
          "type": "int256"
        },
        {
          "name": "y",
          "type": "int256"
        }
      ],
      "name": "getPositionContent",
      "outputs": [
        {
          "name": "",
          "type": "string"
        }
      ],
      "payable": false,
      "stateMutability": "view",
      "type": "function"
    },
    {
      "constant": false,
      "inputs": [],
      "name": "north",
      "outputs": [],
      "payable": false,
      "stateMutability": "nonpayable",
      "type": "function"
    },
    {
      "constant": false,
      "inputs": [],
      "name": "northwest",
      "outputs": [],
      "payable": false,
      "stateMutability": "nonpayable",
      "type": "function"
    },
    {
      "constant": false,
      "inputs": [],
      "name": "west",
      "outputs": [],
      "payable": false,
      "stateMutability": "nonpayable",
      "type": "function"
    },
    {
      "constant": false,
      "inputs": [],
      "name": "southwest",
      "outputs": [],
      "payable": false,
      "stateMutability": "nonpayable",
      "type": "function"
    },
    {
      "constant": false,
      "inputs": [],
      "name": "south",
      "outputs": [],
      "payable": false,
      "stateMutability": "nonpayable",
      "type": "function"
    },
    {
      "constant": false,
      "inputs": [],
      "name": "southeast",
      "outputs": [],
      "payable": false,
      "stateMutability": "nonpayable",
      "type": "function"
    },
    {
      "constant": false,
      "inputs": [],
      "name": "east",
      "outputs": [],
      "payable": false,
      "stateMutability": "nonpayable",
      "type": "function"
    },
    {
      "constant": false,
      "inputs": [],
      "name": "northeast",
      "outputs": [],
      "payable": false,
      "stateMutability": "nonpayable",
      "type": "function"
    },
    {
      "constant": false,
      "inputs": [
        {
          "name": "id",
          "type": "string"
        },
        {
          "name": "startx",
          "type": "int256"
        },
        {
          "name": "starty",
          "type": "int256"
        }
      ],
      "name": "register",
      "outputs": [],
      "payable": false,
      "stateMutability": "nonpayable",
      "type": "function"
    }
  ],
  "bytecode": "0x608060405234801561001057600080fd5b50611d16806100206000396000f3006080604052600436106100a4576000357c0100000000000000000000000000000000000000000000000000000000900463ffffffff1680630f906a7f146100a957806314a6e3241461015957806376b515b6146101705780638e1bb16414610187578063a01d1f1b14610204578063acdb37671461021b578063af77837914610232578063b3faad7414610249578063c9452f3f14610260578063c9cb124214610277575b600080fd5b3480156100b557600080fd5b506100de600480360381019080803590602001909291908035906020019092919050505061028e565b6040518080602001828103825283818151815260200191508051906020019080838360005b8381101561011e578082015181840152602081019050610103565b50505050905090810190601f16801561014b5780820380516001836020036101000a031916815260200191505b509250505060405180910390f35b34801561016557600080fd5b5061016e610351565b005b34801561017c57600080fd5b5061018561035e565b005b34801561019357600080fd5b50610202600480360381019080803590602001908201803590602001908080601f0160208091040260200160405190810160405280939291908181526020018383808284378201915050505050509192919290803590602001909291908035906020019092919050505061038b565b005b34801561021057600080fd5b50610219610516565b005b34801561022757600080fd5b50610230610524565b005b34801561023e57600080fd5b50610247610551565b005b34801561025557600080fd5b5061025e61057d565b005b34801561026c57600080fd5b5061027561058b565b005b34801561028357600080fd5b5061028c6105b8565b005b6060600061029c84846105e5565b9050600181612710811015156102ae57fe5b018054600181600116156101000203166002900480601f0160208091040260200160405190810160405280929190818152602001828054600181600116156101000203166002900480156103435780601f1061031857610100808354040283529160200191610343565b820191906000526020600020905b81548152906001019060200180831161032657829003601f168201915b505050505091505092915050565b61035c6001806105f5565b565b6103897fffffffffffffffffffffffffffffffffffffffffffffffffffffffffffffffff60016105f5565b565b610394836109b7565b1561043a577f6877d48504b156664ba9af677c64340929ba1fed4dd731f11485596348372681836040518080602001828103825283818151815260200191508051906020019080838360005b838110156103fb5780820151818401526020810190506103e0565b50505050905090810190601f1680156104285780820380516001836020036101000a031916815260200191505b509250505060405180910390a1610511565b6104448282610b2e565b15156104fb577fadda1a0ca60375fc9ea11be056e4a3dbb9451976e0ecb34f2b1129beef6e3e038383836040518080602001848152602001838152602001828103825285818151815260200191508051906020019080838360005b838110156104ba57808201518184015260208101905061049f565b50505050905090810190601f1680156104e75780820380516001836020036101000a031916815260200191505b5094505050505060405180910390a1610510565b61050483610b7a565b61050f838383610c7d565b5b5b505050565b610522600060016105f5565b565b61054f7fffffffffffffffffffffffffffffffffffffffffffffffffffffffffffffffff60006105f5565b565b61057b7fffffffffffffffffffffffffffffffffffffffffffffffffffffffffffffffff806105f5565b565b610589600160006105f5565b565b6105b660007fffffffffffffffffffffffffffffffffffffffffffffffffffffffffffffffff6105f5565b565b6105e360017fffffffffffffffffffffffffffffffffffffffffffffffffffffffffffffffff6105f5565b565b6000826064830201905092915050565b600080600080600061284a60003373ffffffffffffffffffffffffffffffffffffffff1673ffffffffffffffffffffffffffffffffffffffff16815260200190815260200160002094506106e1858054600181600116156101000203166002900480601f0160208091040260200160405190810160405280929190818152602001828054600181600116156101000203166002900480156106d75780601f106106ac576101008083540402835291602001916106d7565b820191906000526020600020905b8154815290600101906020018083116106ba57829003601f168201915b5050505050610d1a565b9350610785858054600181600116156101000203166002900480601f01602080910402602001604051908101604052809291908181526020018280546001816001161561010002031660029004801561077b5780601f106107505761010080835404028352916020019161077b565b820191906000526020600020905b81548152906001019060200180831161075e57829003601f168201915b5050505050610d93565b92508684019150858301905061079d60008585610e0c565b6107a960018383610e0c565b61084f858054600181600116156101000203166002900480601f0160208091040260200160405190810160405280929190818152602001828054600181600116156101000203166002900480156108415780601f1061081657610100808354040283529160200191610841565b820191906000526020600020905b81548152906001019060200180831161082457829003601f168201915b505050505083838787610e51565b156109ae5761085e8282610b2e565b151561090957610908858054600181600116156101000203166002900480601f0160208091040260200160405190810160405280929190818152602001828054600181600116156101000203166002900480156108fc5780601f106108d1576101008083540402835291602001916108fc565b820191906000526020600020905b8154815290600101906020018083116108df57829003601f168201915b50505050508383610fb2565b5b6109ad858054600181600116156101000203166002900480601f0160208091040260200160405190810160405280929190818152602001828054600181600116156101000203166002900480156109a15780601f10610976576101008083540402835291602001916109a1565b820191906000526020600020905b81548152906001019060200180831161098457829003601f168201915b50505050508383610c7d565b5b50505050505050565b60008061284b836040518082805190602001908083835b6020831015156109f357805182526020820191506020810190506020830392506109ce565b6001836020036101000a038019825116818451168082178552505050505050905001915050908152602001604051809103902060009054906101000a900473ffffffffffffffffffffffffffffffffffffffff169050600073ffffffffffffffffffffffffffffffffffffffff168173ffffffffffffffffffffffffffffffffffffffff161415610b23577fe048e6ca04ce2a97cdf19ac304fae723e6a8ef6e2d0995cc8adbded7afb31954836040518080602001828103825283818151815260200191508051906020019080838360005b83811015610ae0578082015181840152602081019050610ac5565b50505050905090810190601f168015610b0d5780820380516001836020036101000a031916815260200191505b509250505060405180910390a160009150610b28565b600191505b50919050565b600080600080610b3e86866105e5565b925060018361271081101515610b5057fe5b01915081805460018160011615610100020316600290049050905060008114935050505092915050565b8061284a60003373ffffffffffffffffffffffffffffffffffffffff1673ffffffffffffffffffffffffffffffffffffffff1681526020019081526020016000209080519060200190610bce929190611c45565b503361284b826040518082805190602001908083835b602083101515610c095780518252602082019150602081019050602083039250610be4565b6001836020036101000a038019825116818451168082178552505050505050905001915050908152602001604051809103902060006101000a81548173ffffffffffffffffffffffffffffffffffffffff021916908373ffffffffffffffffffffffffffffffffffffffff16021790555050565b600080610c8a84846105e5565b91508460018361271081101515610c9d57fe5b019080519060200190610cb1929190611c45565b50610cbc8585611248565b610cc685846112c0565b610ccf85611338565b9050610d13858286866040805190810160405280600481526020017f6d6f766500000000000000000000000000000000000000000000000000000000815250611457565b5050505050565b6000600161284c836040518082805190602001908083835b602083101515610d575780518252602082019150602081019050602083039250610d32565b6001836020036101000a038019825116818451168082178552505050505050905001915050908152602001604051809103902054039050919050565b6000600161284d836040518082805190602001908083835b602083101515610dd05780518252602082019150602081019050602083039250610dab565b6001836020036101000a038019825116818451168082178552505050505050905001915050908152602001604051809103902054039050919050565b6000610e1883836105e5565b9050836127118261271081101515610e2c57fe5b602091828204019190066101000a81548160ff02191690831515021790555050505050565b600080851280610e62575060648512155b80610e6d5750600084125b80610e79575060648412155b15610fa4577fb72338d3ca272f01819a720af9798f841cf63bcde99f4ddc91e2ee35559e35fc8686866040518080602001848152602001838152602001828103825285818151815260200191508051906020019080838360005b83811015610eee578082015181840152602081019050610ed3565b50505050905090810190601f168015610f1b5780820380516001836020036101000a031916815260200191505b5094505050505060405180910390a1610f33866109b7565b15610f9b57610f9a867ffffffffffffffffffffffffffffffffffffffffffffffffffffffffffffffffe85856040805190810160405280601d81526020017f506f736974696f6e49734f7574736964654f664669656c644572726f72000000815250611457565b5b60009050610fa9565b600190505b95945050505050565b6000806000610fc185856105e5565b925060018361271081101515610fd357fe5b0191508160405180828054600181600116156101000203166002900480156110325780601f10611010576101008083540402835291820191611032565b820191906000526020600020905b81548152906001019060200180831161101e575b5050915050604051809103902060001916866040518082805190602001908083835b6020831015156110795780518252602082019150602081019050602083039250611054565b6001836020036101000a03801982511681845116808217855250505050505090500191505060405180910390206000191614156110c0576110bb8686866118e4565b611240565b61271183612710811015156110d157fe5b602091828204019190069054906101000a900460ff16905080156111995761119486838054600181600116156101000203166002900480601f0160208091040260200160405190810160405280929190818152602001828054600181600116156101000203166002900480156111885780601f1061115d57610100808354040283529160200191611188565b820191906000526020600020905b81548152906001019060200180831161116b57829003601f168201915b505050505087876119f8565b61123f565b61123e86838054600181600116156101000203166002900480601f0160208091040260200160405190810160405280929190818152602001828054600181600116156101000203166002900480156112325780601f1061120757610100808354040283529160200191611232565b820191906000526020600020905b81548152906001019060200180831161121557829003601f168201915b50505050508787611b0c565b5b5b505050505050565b6001810161284c836040518082805190602001908083835b6020831015156112855780518252602082019150602081019050602083039250611260565b6001836020036101000a0380198251168184511680821785525050505050509050019150509081526020016040518091039020819055505050565b6001810161284d836040518082805190602001908083835b6020831015156112fd57805182526020820191506020810190506020830392506112d8565b6001836020036101000a0380198251168184511680821785525050505050509050019150509081526020016040518091039020819055505050565b600080600080600061284e866040518082805190602001908083835b6020831015156113795780518252602082019150602081019050602083039250611354565b6001836020036101000a03801982511681845116808217855250505050505090500191505090815260200160405180910390205493504392508383039150600084136113c65760006113d8565b600182136113d55760006113d7565b815b5b90508261284e876040518082805190602001908083835b60208310151561141457805182526020820191506020810190506020830392506113ef565b6001836020036101000a03801982511681845116808217855250505050505090500191505090815260200160405180910390208190555080945050505050919050565b600061284f866040518082805190602001908083835b602083101515611492578051825260208201915060208101905060208303925061146d565b6001836020036101000a0380198251168184511680821785525050505050509050019150509081526020016040518091039020541415801561156157507fffffffffffffffffffffffffffffffffffffffffffffffffffffffffffffffff840261284f866040518082805190602001908083835b60208310151561152b5780518252602082019150602081019050602083039250611506565b6001836020036101000a038019825116818451168082178552505050505050905001915050908152602001604051809103902054145b156116cd57600061284f866040518082805190602001908083835b6020831015156115a1578051825260208201915060208101905060208303925061157c565b6001836020036101000a038019825116818451168082178552505050505050905001915050908152602001604051809103902054131561165557600a60000361284f866040518082805190602001908083835b60208310151561161957805182526020820191506020810190506020830392506115f4565b6001836020036101000a0380198251168184511680821785525050505050509050019150509081526020016040518091039020819055506116c8565b600a61284f866040518082805190602001908083835b602083101515611690578051825260208201915060208101905060208303925061166b565b6001836020036101000a0380198251168184511680821785525050505050509050019150509081526020016040518091039020819055505b611748565b8361284f866040518082805190602001908083835b60208310151561170757805182526020820191506020810190506020830392506116e2565b6001836020036101000a0380198251168184511680821785525050505050509050019150509081526020016040518091039020600082825401925050819055505b7f25524642b3cd5e6fec0b3689fd2e46571ed2a1223d9fe9b81dcbec9b0295e1838584848761284f8a6040518082805190602001908083835b6020831015156117a65780518252602082019150602081019050602083039250611781565b6001836020036101000a03801982511681845116808217855250505050505090500191505090815260200160405180910390205486604051808060200187815260200186815260200185815260200184815260200180602001838103835289818151815260200191508051906020019080838360005b8381101561183757808201518184015260208101905061181c565b50505050905090810190601f1680156118645780820380516001836020036101000a031916815260200191505b50838103825284818151815260200191508051906020019080838360005b8381101561189d578082015181840152602081019050611882565b50505050905090810190601f1680156118ca5780820380516001836020036101000a031916815260200191505b509850505050505050505060405180910390a15050505050565b600061284f846040518082805190602001908083835b60208310151561191f57805182526020820191506020810190506020830392506118fa565b6001836020036101000a03801982511681845116808217855250505050505090500191505090815260200160405180910390205490506000811215156119ac576119a7846064836000030385856040805190810160405280600481526020017f73656c6600000000000000000000000000000000000000000000000000000000815250611457565b6119f2565b6119f1848260000385856040805190810160405280600481526020017f73656c6600000000000000000000000000000000000000000000000000000000815250611457565b5b50505050565b600061284f846040518082805190602001908083835b602083101515611a335780518252602082019150602081019050602083039250611a0e565b6001836020036101000a0380198251168184511680821785525050505050509050019150509081526020016040518091039020549050600081121515611abe57611ab984866064840186866040805190810160405280600481526020017f6865616400000000000000000000000000000000000000000000000000000000815250611c20565b611b05565b611b0484868360000386866040805190810160405280600481526020017f6865616400000000000000000000000000000000000000000000000000000000815250611c20565b5b5050505050565b600061284f846040518082805190602001908083835b602083101515611b475780518252602082019150602081019050602083039250611b22565b6001836020036101000a0380198251168184511680821785525050505050509050019150509081526020016040518091039020549050600081121515611bd257611bcd85856064840186866040805190810160405280600481526020017f7461696c00000000000000000000000000000000000000000000000000000000815250611c20565b611c19565b611c1885858360000386866040805190810160405280600481526020017f7461696c00000000000000000000000000000000000000000000000000000000815250611c20565b5b5050505050565b611c308685600003858585611457565b611c3d8585858585611457565b505050505050565b828054600181600116156101000203166002900490600052602060002090601f016020900481019282601f10611c8657805160ff1916838001178555611cb4565b82800160010185558215611cb4579182015b82811115611cb3578251825591602001919060010190611c98565b5b509050611cc19190611cc5565b5090565b611ce791905b80821115611ce3576000816000905550600101611ccb565b5090565b905600a165627a7a7230582017b83433564db6f785327b46bc530ea4e597b9ee54f9f6201f4482e60c09a5c00029",
  "source": "pragma solidity ^0.4.19;\n\ncontract ChainTraze {\n    \n    int constant X_DIM = 100;\n    int constant Y_DIM = 100;\n    int constant FIELD_SIZE = X_DIM*Y_DIM;\n    int constant PENALTY = -2;\n    int constant BUMP = 10;\n    \n    mapping (address => int256) balances;\n    \n    string[FIELD_SIZE] field;\n    bool[FIELD_SIZE] headFlags;\n\n    mapping (address => string) addressToId;\n    mapping (string => address) idToAddress;\n    mapping (string => int) xpositions;\n    mapping (string => int) ypositions;\n    mapping (string => int) lastBlockNumbers;\n    mapping (string => int) totalRewards;\n\n    // The following 4 functions are a workaround to get around an unsolvded Ganache Bug:\n    // https://github.com/trufflesuite/ganache-cli/issues/458\n    // When setting an position from any value > 0 to zero an error occurs\n\n    function setXposition(string id, int pos) internal {\n        xpositions[id] = pos + 1;\n    }\n\n    function getXPosition(string id) view internal returns(int) {\n        return xpositions[id] - 1;\n    }\n    \n    function setYposition(string id, int pos) internal {\n        ypositions[id] = pos + 1;\n    }\n    \n    function getYPosition(string id) view internal returns(int) {\n        return ypositions[id] - 1;\n    }\n    \n    event Position(string id, int x, int y, int reward, int totalReward, string remarks);\n    event Error(string message);\n    event IdAlreadyExistsError(string id);\n    event IdDoesNotExistError(string id);\n    event IdDoesNotBelongToSender(string id);\n    event PositionIsNotFreeError(string id, int x, int y);\n    event PositionIsOutsideOfFieldError(string id, int x, int y);\n    event IdNotValid(string id);\n    \n    function computeIndex(int x, int y) pure internal returns(uint index) {\n        index = uint(y * X_DIM + x);\n    }\n\n    function addReward(string id, int reward, int x, int y, string remarks) internal {\n        if(totalRewards[id] != 0 && totalRewards[id] == (reward * -1)) {\n            if(totalRewards[id] > 0) {\n                totalRewards[id] = -BUMP;\n            }\n            else {\n                totalRewards[id] = BUMP;\n            }\n        }\n        else {\n            totalRewards[id] += reward;\n        }\n        emit Position(id, x, y, reward, totalRewards[id], remarks);\n    }\n\n    function computeReward(string id) internal returns(int _reward){\n        int lastBlockNumber = lastBlockNumbers[id];\n        int currentBlockNumber = int(block.number);\n        int diff = currentBlockNumber - lastBlockNumber;\n        int reward = lastBlockNumber > 0 ? (diff > 1 ? diff : 0) : 0;\n        lastBlockNumbers[id] = currentBlockNumber;\n        return reward;\n    }\n    \n    function getPositionContent(int x, int y) public view returns(string) {\n        uint index = computeIndex(x, y);\n        return field[index];\n    }\n\n    function checkIdIsValid(string id) internal returns(bool) {\n        address existingAddress = idToAddress[id];\n        if(existingAddress == address(0x0)) {\n            emit IdNotValid(id);\n            return false;\n        }\n\n        return true;\n    }\n    \n    function checkIdIsFree(string id) internal returns(bool) {\n        if(checkIdIsValid(id)) {\n            emit IdAlreadyExistsError(id);\n            return false;\n        }\n        \n        return true;\n    }\n\n    function isInsideField(string id, int x, int y, int currentx, int currenty) internal returns(bool) {\n        if(x < 0 || x >= X_DIM || y < 0 || y >= Y_DIM) {\n            emit PositionIsOutsideOfFieldError(id, x, y);\n            if(checkIdIsValid(id)) {\n                addReward(id, PENALTY, currentx, currenty, \"PositionIsOutsideOfFieldError\");\n            }\n            return false;\n        }\n\n        return true;\n    }\n\n    function sendReward(string fromId, string toId, int reward, int x, int y, string remarks) internal {\n        addReward(fromId, -reward, x, y, remarks);\n        addReward(toId, reward, x, y, remarks);\n    }\n\n    function processHeadCollision(string id, string otherId, int x, int y) internal {\n        int otherTotalReward = totalRewards[otherId];\n        if(otherTotalReward >= 0) {\n            sendReward(otherId, id, otherTotalReward + 100, x, y, \"head\");\n        }\n        else {\n            sendReward(otherId, id, -otherTotalReward, x, y, \"head\");\n        }\n    }\n\n    function processTailCollision(string id, string otherId, int x, int y) internal {\n        int totalReward = totalRewards[otherId];\n        if(totalReward >= 0) {\n            sendReward(id, otherId, totalReward + 100, x, y, \"tail\");\n        }\n        else {\n            sendReward(id, otherId, -totalReward, x, y, \"tail\");\n        }\n    }\n\n    function processSelfCollision(string id, int x, int y) internal {\n        int totalReward = totalRewards[id];\n        if(totalReward >= 0) {\n            addReward(id, -totalReward - 100, x, y, \"self\");\n        }\n        else {\n            addReward(id, -totalReward, x, y, \"self\");\n        }\n    }\n\n    function processCollision(string id, int x, int y) internal {\n        uint index = computeIndex(x, y);\n        string storage otherId = field[index];\n        if(keccak256(id) == keccak256(otherId)) {\n            processSelfCollision(id, x, y);\n        }\n        else {\n            bool isHead = headFlags[index];\n            if(isHead) {\n                processHeadCollision(id, otherId, x, y);\n            }\n            else {\n                processTailCollision(id, otherId, x, y);\n            }\n        }\n    }\n\n    function isFree(int x, int y) internal view returns(bool) {\n        uint index = computeIndex(x, y);\n        string storage idInField = field[index];\n        uint len = bytes(idInField).length;\n        return (len == 0);\n    }\n    \n    function goIntoField(string id, int x, int y) internal {\n        uint index = computeIndex(x, y);\n        field[index] = id;\n        setXposition(id, x);\n        setYposition(id, y);\n        int reward = computeReward(id);\n        addReward(id, reward, x, y, \"move\");\n    }\n\n    function setHeadFlag(bool headFlag, int x, int y) internal {\n        uint index = computeIndex(x, y);\n        headFlags[index] = headFlag;\n    }\n\n    function move(int dx, int dy) internal {\n        string storage id = addressToId[msg.sender];\n        int currentx = getXPosition(id);\n        int currenty = getYPosition(id);\n        int nextx = currentx + dx;\n        int nexty = currenty + dy;\n\n        setHeadFlag(false, currentx, currenty);\n        setHeadFlag(true, nextx, nexty);\n\n        if(isInsideField(id, nextx, nexty, currentx, currenty)) {\n            if(!isFree(nextx, nexty)) {\n                processCollision(id, nextx, nexty);\n            }\n            goIntoField(id, nextx, nexty);\n        }\n    }\n    \n    function registerId(string id) internal {\n        addressToId[msg.sender] = id;\n        idToAddress[id] = msg.sender;\n    }\n\n    function north() public {\n        move(0, -1);\n    }\n\n    function northwest() public {\n        move(-1, -1);\n    }\n\n    function west() public {\n        move(-1, 0);\n    }\n\n    function southwest() public {\n        move(-1, 1);\n    }\n\n    function south() public {\n        move(0, 1);\n    }\n\n    function southeast() public {\n        move(1, 1);\n    }\n\n    function east() public {\n        move(1, 0);\n    }\n\n    function northeast() public {\n        move(1, -1);\n    }\n    \n    function register(string id, int startx, int starty) public {\n        if(checkIdIsValid(id)) {\n            emit IdAlreadyExistsError(id);\n        }\n        else if(!isFree(startx, starty)) {\n            emit PositionIsNotFreeError(id, startx, starty);\n        }\n        else {\n            registerId(id);\n            goIntoField(id, startx, starty);\n        }\n    }\n}\n",
  "sourcePath": "/Users/oliver/dev/ethereum/BCTron/truffle/contracts/ChainTraze.sol",
  "compiler": {
    "name": "solc",
    "version": "0.4.23+commit.124ca40d.Emscripten.clang"
  },
  "schemaVersion": "2.0.0",
  "updatedAt": "2018-05-02T06:36:04.944Z"
}