{
  "contractName": "ChainTraze",
  "abi": [
    {
      "anonymous": false,
      "inputs": [
        {
          "indexed": false,
          "name": "id",
          "type": "string"
        },
        {
          "indexed": false,
          "name": "x",
          "type": "uint256"
        },
        {
          "indexed": false,
          "name": "y",
          "type": "uint256"
        }
      ],
      "name": "Position",
      "type": "event"
    },
    {
      "anonymous": false,
      "inputs": [
        {
          "indexed": false,
          "name": "id",
          "type": "string"
        },
        {
          "indexed": false,
          "name": "x",
          "type": "string"
        },
        {
          "indexed": false,
          "name": "y",
          "type": "string"
        }
      ],
      "name": "Position2",
      "type": "event"
    },
    {
      "anonymous": false,
      "inputs": [
        {
          "indexed": false,
          "name": "message",
          "type": "string"
        }
      ],
      "name": "Error",
      "type": "event"
    },
    {
      "constant": true,
      "inputs": [
        {
          "name": "x",
          "type": "uint256"
        },
        {
          "name": "y",
          "type": "uint256"
        }
      ],
      "name": "getPositionContent",
      "outputs": [
        {
          "name": "",
          "type": "string"
        }
      ],
      "payable": false,
      "stateMutability": "view",
      "type": "function"
    },
    {
      "constant": false,
      "inputs": [
        {
          "name": "id",
          "type": "string"
        },
        {
          "name": "startx",
          "type": "uint256"
        },
        {
          "name": "starty",
          "type": "uint256"
        }
      ],
      "name": "register",
      "outputs": [],
      "payable": false,
      "stateMutability": "nonpayable",
      "type": "function"
    }
  ],
  "bytecode": "0x6060604052341561000f57600080fd5b610bde8061001e6000396000f30060606040526004361061004c576000357c0100000000000000000000000000000000000000000000000000000000900463ffffffff1680632f6527c41461005157806390a9f837146100f6575b600080fd5b341561005c57600080fd5b61007b6004808035906020019091908035906020019091905050610165565b6040518080602001828103825283818151815260200191508051906020019080838360005b838110156100bb5780820151818401526020810190506100a0565b50505050905090810190601f1680156100e85780820380516001836020036101000a031916815260200191505b509250505060405180910390f35b341561010157600080fd5b610163600480803590602001908201803590602001908080601f0160208091040260200160405190810160405280939291908181526020018383808284378201915050505050509190803590602001909190803590602001909190505061022f565b005b61016d610ae5565b60006101798484610269565b9050600181620f42408110151561018c57fe5b018054600181600116156101000203166002900480601f0160208091040260200160405190810160405280929190818152602001828054600181600116156101000203166002900480156102215780601f106101f657610100808354040283529160200191610221565b820191906000526020600020905b81548152906001019060200180831161020457829003601f168201915b505050505091505092915050565b6102388361027a565b801561024a575061024982826103bf565b5b156102645761025883610485565b61026383838361058a565b5b505050565b6000826103e8830201905092915050565b600080620f4242836040518082805190602001908083835b6020831015156102b75780518252602082019150602081019050602083039250610292565b6001836020036101000a038019825116818451168082178552505050505050905001915050908152602001604051809103902060009054906101000a900473ffffffffffffffffffffffffffffffffffffffff169050600073ffffffffffffffffffffffffffffffffffffffff168173ffffffffffffffffffffffffffffffffffffffff161415156103b4577f08c379a0afcc32b1a39302f7cb8073359698411ab5fd6e3edb2c02c0b5fba8aa6040518080602001828103825260118152602001807f696420616c72656164792065786973747300000000000000000000000000000081525060200191505060405180910390a1600091506103b9565b600191505b50919050565b6000806000806103cf8686610269565b9250600183620f4240811015156103e257fe5b0191508180546001816001161561010002031660029004905090506000811115610477577f08c379a0afcc32b1a39302f7cb8073359698411ab5fd6e3edb2c02c0b5fba8aa6040518080602001828103825260178152602001807f737461727420706f736974696f6e206e6f74206672656500000000000000000081525060200191505060405180910390a16000935061047c565b600193505b50505092915050565b80620f424160003373ffffffffffffffffffffffffffffffffffffffff1673ffffffffffffffffffffffffffffffffffffffff16815260200190815260200160002090805190602001906104da929190610af9565b5033620f4242826040518082805190602001908083835b60208310151561051657805182526020820191506020810190506020830392506104f1565b6001836020036101000a038019825116818451168082178552505050505050905001915050908152602001604051809103902060006101000a81548173ffffffffffffffffffffffffffffffffffffffff021916908373ffffffffffffffffffffffffffffffffffffffff16021790555050565b6000610594610ae5565b61059c610ae5565b6105a68585610269565b925085600184620f4240811015156105ba57fe5b0190805190602001906105ce929190610af9565b5084620f4243876040518082805190602001908083835b60208310151561060a57805182526020820191506020810190506020830392506105e5565b6001836020036101000a03801982511681845116808217855250505050505090500191505090815260200160405180910390208190555083620f4244876040518082805190602001908083835b60208310151561067c5780518252602082019150602081019050602083039250610657565b6001836020036101000a0380198251168184511680821785525050505050509050019150509081526020016040518091039020819055507f29a79786d349ca612c0002293026df60d209457915b596a4ece7a3cccc93af198686866040518080602001848152602001838152602001828103825285818151815260200191508051906020019080838360005b83811015610723578082015181840152602081019050610708565b50505050905090810190601f1680156107505780820380516001836020036101000a031916815260200191505b5094505050505060405180910390a1610768856108f3565b9150610773846108f3565b90507f5dfb2295f6c23ae130d55b1106b02184d4a217886880ae1d0f3712354257477586838360405180806020018060200180602001848103845287818151815260200191508051906020019080838360005b838110156107e15780820151818401526020810190506107c6565b50505050905090810190601f16801561080e5780820380516001836020036101000a031916815260200191505b50848103835286818151815260200191508051906020019080838360005b8381101561084757808201518184015260208101905061082c565b50505050905090810190601f1680156108745780820380516001836020036101000a031916815260200191505b50848103825285818151815260200191508051906020019080838360005b838110156108ad578082015181840152602081019050610892565b50505050905090810190601f1680156108da5780820380516001836020036101000a031916815260200191505b50965050505050505060405180910390a1505050505050565b6108fb610ae5565b610903610b79565b61090c83610917565b905080915050919050565b61091f610b79565b6000610929610b79565b600080610934610b79565b600060649550856040518059106109485750595b9080825280601f01601f19166020018201604052509450600093505b6000881415156109fb57600a8881151561097a57fe5b069250600a8881151561098957fe5b049750826030017f01000000000000000000000000000000000000000000000000000000000000000285858060010196508151811015156109c657fe5b9060200101907effffffffffffffffffffffffffffffffffffffffffffffffffffffffffffff1916908160001a905350610964565b60018401604051805910610a0c5750595b9080825280601f01601f19166020018201604052509150600090505b8381111515610ad75784818503815181101515610a4157fe5b9060200101517f010000000000000000000000000000000000000000000000000000000000000090047f0100000000000000000000000000000000000000000000000000000000000000028282815181101515610a9a57fe5b9060200101907effffffffffffffffffffffffffffffffffffffffffffffffffffffffffffff1916908160001a9053508080600101915050610a28565b819650505050505050919050565b602060405190810160405280600081525090565b828054600181600116156101000203166002900490600052602060002090601f016020900481019282601f10610b3a57805160ff1916838001178555610b68565b82800160010185558215610b68579182015b82811115610b67578251825591602001919060010190610b4c565b5b509050610b759190610b8d565b5090565b602060405190810160405280600081525090565b610baf91905b80821115610bab576000816000905550600101610b93565b5090565b905600a165627a7a72305820b4b51aac7878cda9bc01c13a33ed557b4b0cf6dfd9ac698246ca3305727cbc9c0029",
  "source": "pragma solidity ^0.4.19;\n\ncontract ChainTraze {\n    \n    uint constant X_DIM = 1000;\n    uint constant Y_DIM = 1000;\n    uint constant FIELD_SIZE = X_DIM*Y_DIM;\n    \n    mapping (address => int256) balances;\n    \n    string[FIELD_SIZE] field;\n\n    mapping (address => string) addressToId;\n    mapping (string => address) idToAddress;\n    mapping (string => uint) xpositions;\n    mapping (string => uint) ypositions;\n    \n    event Position(string id, uint x, uint y);\n    event Position2(string id, string x, string y);\n    event Error(string message);\n    \n    function computeIndex(uint x, uint y) pure internal returns(uint index) {\n        index = y * X_DIM + x;\n    }\n    \n    function getPositionContent(uint x, uint y) public view returns(string) {\n        uint index = computeIndex(x, y);\n        return field[index];\n    }\n    \n    function checkId(string id) internal returns(bool) {\n        address existingAddress = idToAddress[id];\n        if(existingAddress != address(0x0)) {\n            Error(\"id already exists\");\n            return false;\n        }\n        \n        return true;\n    }\n    \n    function checkStartPosition(uint startx, uint starty) internal returns(bool) {\n        uint index = computeIndex(startx, starty);\n        string storage content = field[index];\n        uint len = bytes(content).length;\n        if(len > 0) {\n            Error(\"start position not free\");\n            return false;\n        }\n        \n        return true;\n    }\n    \n    function uintToBytes(uint v) internal pure returns (bytes) {\n        uint maxlength = 100;\n        bytes memory reversed = new bytes(maxlength);\n        uint i = 0;\n        while (v != 0) {\n            uint remainder = v % 10;\n            v = v / 10;\n            reversed[i++] = byte(48 + remainder);\n        }\n        bytes memory b = new bytes(i + 1);\n        for (uint j = 0; j <= i; j++) {\n            b[j] = reversed[i - j];\n        }\n        \n        return (b);\n    }\n\n    function uintToString(uint v) internal pure returns (string str) {\n        bytes memory b = uintToBytes(v);\n        str = string(b);\n    }\n    \n    function goIntoField(string id, uint x, uint y) internal {\n            uint index = computeIndex(x, y);\n            field[index] = id;\n            xpositions[id] = x;\n            ypositions[id] = y;\n            Position(id, x, y);\n            string memory sx = uintToString(x);\n            string memory sy = uintToString(y);\n            Position2(id, sx, sy);\n    }\n    \n    function registerId(string id) internal {\n        addressToId[msg.sender] = id;\n        idToAddress[id] = msg.sender;\n    }\n    \n    function register(string id, uint startx, uint starty) public {\n        if(checkId(id) && checkStartPosition(startx, starty)) {\n            registerId(id);\n            goIntoField(id, startx, starty);\n        }\n    }\n}\n",
  "sourcePath": "/Users/oliver/dev/ethereum/BCTron/truffle/contracts/ChainTraze.sol",
  "compiler": {
    "name": "solc",
    "version": "0.4.19+commit.c4cbbb05.Emscripten.clang"
  },
  "schemaVersion": "2.0.0",
  "updatedAt": "2018-04-13T15:15:46.736Z"
}