{
  "contractName": "ChainTraze",
  "abi": [
    {
      "anonymous": false,
      "inputs": [
        {
          "indexed": false,
          "name": "id",
          "type": "string"
        },
        {
          "indexed": false,
          "name": "x",
          "type": "int256"
        },
        {
          "indexed": false,
          "name": "y",
          "type": "int256"
        },
        {
          "indexed": false,
          "name": "reward",
          "type": "int256"
        },
        {
          "indexed": false,
          "name": "totalReward",
          "type": "int256"
        },
        {
          "indexed": false,
          "name": "remarks",
          "type": "string"
        }
      ],
      "name": "Position",
      "type": "event"
    },
    {
      "anonymous": false,
      "inputs": [
        {
          "indexed": false,
          "name": "message",
          "type": "string"
        }
      ],
      "name": "Error",
      "type": "event"
    },
    {
      "anonymous": false,
      "inputs": [
        {
          "indexed": false,
          "name": "id",
          "type": "string"
        }
      ],
      "name": "IdAlreadyExistsError",
      "type": "event"
    },
    {
      "anonymous": false,
      "inputs": [
        {
          "indexed": false,
          "name": "id",
          "type": "string"
        }
      ],
      "name": "IdDoesNotExistError",
      "type": "event"
    },
    {
      "anonymous": false,
      "inputs": [
        {
          "indexed": false,
          "name": "id",
          "type": "string"
        }
      ],
      "name": "IdDoesNotBelongToSender",
      "type": "event"
    },
    {
      "anonymous": false,
      "inputs": [
        {
          "indexed": false,
          "name": "id",
          "type": "string"
        },
        {
          "indexed": false,
          "name": "x",
          "type": "int256"
        },
        {
          "indexed": false,
          "name": "y",
          "type": "int256"
        }
      ],
      "name": "PositionIsNotFreeError",
      "type": "event"
    },
    {
      "anonymous": false,
      "inputs": [
        {
          "indexed": false,
          "name": "id",
          "type": "string"
        },
        {
          "indexed": false,
          "name": "x",
          "type": "int256"
        },
        {
          "indexed": false,
          "name": "y",
          "type": "int256"
        }
      ],
      "name": "PositionIsOutsideOfFieldError",
      "type": "event"
    },
    {
      "anonymous": false,
      "inputs": [
        {
          "indexed": false,
          "name": "id",
          "type": "string"
        }
      ],
      "name": "IdNotValid",
      "type": "event"
    },
    {
      "constant": true,
      "inputs": [
        {
          "name": "x",
          "type": "int256"
        },
        {
          "name": "y",
          "type": "int256"
        }
      ],
      "name": "getPositionContent",
      "outputs": [
        {
          "name": "",
          "type": "string"
        }
      ],
      "payable": false,
      "stateMutability": "view",
      "type": "function"
    },
    {
      "constant": false,
      "inputs": [],
      "name": "north",
      "outputs": [],
      "payable": false,
      "stateMutability": "nonpayable",
      "type": "function"
    },
    {
      "constant": false,
      "inputs": [],
      "name": "northwest",
      "outputs": [],
      "payable": false,
      "stateMutability": "nonpayable",
      "type": "function"
    },
    {
      "constant": false,
      "inputs": [],
      "name": "west",
      "outputs": [],
      "payable": false,
      "stateMutability": "nonpayable",
      "type": "function"
    },
    {
      "constant": false,
      "inputs": [],
      "name": "southwest",
      "outputs": [],
      "payable": false,
      "stateMutability": "nonpayable",
      "type": "function"
    },
    {
      "constant": false,
      "inputs": [],
      "name": "south",
      "outputs": [],
      "payable": false,
      "stateMutability": "nonpayable",
      "type": "function"
    },
    {
      "constant": false,
      "inputs": [],
      "name": "southeast",
      "outputs": [],
      "payable": false,
      "stateMutability": "nonpayable",
      "type": "function"
    },
    {
      "constant": false,
      "inputs": [],
      "name": "east",
      "outputs": [],
      "payable": false,
      "stateMutability": "nonpayable",
      "type": "function"
    },
    {
      "constant": false,
      "inputs": [],
      "name": "northeast",
      "outputs": [],
      "payable": false,
      "stateMutability": "nonpayable",
      "type": "function"
    },
    {
      "constant": false,
      "inputs": [
        {
          "name": "id",
          "type": "string"
        },
        {
          "name": "startx",
          "type": "int256"
        },
        {
          "name": "starty",
          "type": "int256"
        }
      ],
      "name": "register",
      "outputs": [],
      "payable": false,
      "stateMutability": "nonpayable",
      "type": "function"
    }
  ],
  "bytecode": "0x608060405234801561001057600080fd5b506120e9806100206000396000f3006080604052600436106100a4576000357c0100000000000000000000000000000000000000000000000000000000900463ffffffff1680630f906a7f146100a957806314a6e3241461015957806376b515b6146101705780638e1bb16414610187578063a01d1f1b14610204578063acdb37671461021b578063af77837914610232578063b3faad7414610249578063c9452f3f14610260578063c9cb124214610277575b600080fd5b3480156100b557600080fd5b506100de600480360381019080803590602001909291908035906020019092919050505061028e565b6040518080602001828103825283818151815260200191508051906020019080838360005b8381101561011e578082015181840152602081019050610103565b50505050905090810190601f16801561014b5780820380516001836020036101000a031916815260200191505b509250505060405180910390f35b34801561016557600080fd5b5061016e610351565b005b34801561017c57600080fd5b5061018561035e565b005b34801561019357600080fd5b50610202600480360381019080803590602001908201803590602001908080601f0160208091040260200160405190810160405280939291908181526020018383808284378201915050505050509192919290803590602001909291908035906020019092919050505061038b565b005b34801561021057600080fd5b50610219610516565b005b34801561022757600080fd5b50610230610524565b005b34801561023e57600080fd5b50610247610551565b005b34801561025557600080fd5b5061025e61057d565b005b34801561026c57600080fd5b5061027561058b565b005b34801561028357600080fd5b5061028c6105b8565b005b6060600061029c84846105e5565b9050600181612710811015156102ae57fe5b018054600181600116156101000203166002900480601f0160208091040260200160405190810160405280929190818152602001828054600181600116156101000203166002900480156103435780601f1061031857610100808354040283529160200191610343565b820191906000526020600020905b81548152906001019060200180831161032657829003601f168201915b505050505091505092915050565b61035c6001806105f5565b565b6103897fffffffffffffffffffffffffffffffffffffffffffffffffffffffffffffffff60016105f5565b565b610394836109b7565b1561043a577f6877d48504b156664ba9af677c64340929ba1fed4dd731f11485596348372681836040518080602001828103825283818151815260200191508051906020019080838360005b838110156103fb5780820151818401526020810190506103e0565b50505050905090810190601f1680156104285780820380516001836020036101000a031916815260200191505b509250505060405180910390a1610511565b6104448282610b2e565b15156104fb577fadda1a0ca60375fc9ea11be056e4a3dbb9451976e0ecb34f2b1129beef6e3e038383836040518080602001848152602001838152602001828103825285818151815260200191508051906020019080838360005b838110156104ba57808201518184015260208101905061049f565b50505050905090810190601f1680156104e75780820380516001836020036101000a031916815260200191505b5094505050505060405180910390a1610510565b61050483610b7a565b61050f838383610c7d565b5b5b505050565b610522600060016105f5565b565b61054f7fffffffffffffffffffffffffffffffffffffffffffffffffffffffffffffffff60006105f5565b565b61057b7fffffffffffffffffffffffffffffffffffffffffffffffffffffffffffffffff806105f5565b565b610589600160006105f5565b565b6105b660007fffffffffffffffffffffffffffffffffffffffffffffffffffffffffffffffff6105f5565b565b6105e360017fffffffffffffffffffffffffffffffffffffffffffffffffffffffffffffffff6105f5565b565b6000826064830201905092915050565b600080600080600061284a60003373ffffffffffffffffffffffffffffffffffffffff1673ffffffffffffffffffffffffffffffffffffffff16815260200190815260200160002094506106e1858054600181600116156101000203166002900480601f0160208091040260200160405190810160405280929190818152602001828054600181600116156101000203166002900480156106d75780601f106106ac576101008083540402835291602001916106d7565b820191906000526020600020905b8154815290600101906020018083116106ba57829003601f168201915b5050505050610dd6565b9350610785858054600181600116156101000203166002900480601f01602080910402602001604051908101604052809291908181526020018280546001816001161561010002031660029004801561077b5780601f106107505761010080835404028352916020019161077b565b820191906000526020600020905b81548152906001019060200180831161075e57829003601f168201915b5050505050610e4f565b92508684019150858301905061079d60008585610ec8565b6107a960018383610ec8565b61084f858054600181600116156101000203166002900480601f0160208091040260200160405190810160405280929190818152602001828054600181600116156101000203166002900480156108415780601f1061081657610100808354040283529160200191610841565b820191906000526020600020905b81548152906001019060200180831161082457829003601f168201915b505050505083838787610f0d565b156109ae5761085e8282610b2e565b151561090957610908858054600181600116156101000203166002900480601f0160208091040260200160405190810160405280929190818152602001828054600181600116156101000203166002900480156108fc5780601f106108d1576101008083540402835291602001916108fc565b820191906000526020600020905b8154815290600101906020018083116108df57829003601f168201915b50505050508383611150565b5b6109ad858054600181600116156101000203166002900480601f0160208091040260200160405190810160405280929190818152602001828054600181600116156101000203166002900480156109a15780601f10610976576101008083540402835291602001916109a1565b820191906000526020600020905b81548152906001019060200180831161098457829003601f168201915b50505050508383610c7d565b5b50505050505050565b60008061284b836040518082805190602001908083835b6020831015156109f357805182526020820191506020810190506020830392506109ce565b6001836020036101000a038019825116818451168082178552505050505050905001915050908152602001604051809103902060009054906101000a900473ffffffffffffffffffffffffffffffffffffffff169050600073ffffffffffffffffffffffffffffffffffffffff168173ffffffffffffffffffffffffffffffffffffffff161415610b23577fe048e6ca04ce2a97cdf19ac304fae723e6a8ef6e2d0995cc8adbded7afb31954836040518080602001828103825283818151815260200191508051906020019080838360005b83811015610ae0578082015181840152602081019050610ac5565b50505050905090810190601f168015610b0d5780820380516001836020036101000a031916815260200191505b509250505060405180910390a160009150610b28565b600191505b50919050565b600080600080610b3e86866105e5565b925060018361271081101515610b5057fe5b01915081805460018160011615610100020316600290049050905060008114935050505092915050565b8061284a60003373ffffffffffffffffffffffffffffffffffffffff1673ffffffffffffffffffffffffffffffffffffffff1681526020019081526020016000209080519060200190610bce929190612018565b503361284b826040518082805190602001908083835b602083101515610c095780518252602082019150602081019050602083039250610be4565b6001836020036101000a038019825116818451168082178552505050505050905001915050908152602001604051809103902060006101000a81548173ffffffffffffffffffffffffffffffffffffffff021916908373ffffffffffffffffffffffffffffffffffffffff16021790555050565b6000806000610c8c85856105e5565b92508560018461271081101515610c9f57fe5b019080519060200190610cb3929190612018565b50610cbe8686611812565b610cc8868561188a565b610cd186611902565b80925081935050507f25524642b3cd5e6fec0b3689fd2e46571ed2a1223d9fe9b81dcbec9b0295e1838686868585604051808060200186815260200185815260200184815260200183815260200180602001838103835288818151815260200191508051906020019080838360005b83811015610d5b578082015181840152602081019050610d40565b50505050905090810190601f168015610d885780820380516001836020036101000a031916815260200191505b50838103825260048152602001807f6d6f76650000000000000000000000000000000000000000000000000000000081525060200197505050505050505060405180910390a1505050505050565b6000600161284c836040518082805190602001908083835b602083101515610e135780518252602082019150602081019050602083039250610dee565b6001836020036101000a038019825116818451168082178552505050505050905001915050908152602001604051809103902054039050919050565b6000600161284d836040518082805190602001908083835b602083101515610e8c5780518252602082019150602081019050602083039250610e67565b6001836020036101000a038019825116818451168082178552505050505050905001915050908152602001604051809103902054039050919050565b6000610ed483836105e5565b9050836127118261271081101515610ee857fe5b602091828204019190066101000a81548160ff02191690831515021790555050505050565b6000806000861280610f20575060648612155b80610f2b5750600085125b80610f37575060648512155b15611141577fb72338d3ca272f01819a720af9798f841cf63bcde99f4ddc91e2ee35559e35fc8787876040518080602001848152602001838152602001828103825285818151815260200191508051906020019080838360005b83811015610fac578082015181840152602081019050610f91565b50505050905090810190601f168015610fd95780820380516001836020036101000a031916815260200191505b5094505050505060405180910390a1610ff1876109b7565b1561113857611020877ffffffffffffffffffffffffffffffffffffffffffffffffffffffffffffffffe611a34565b90507f25524642b3cd5e6fec0b3689fd2e46571ed2a1223d9fe9b81dcbec9b0295e1838785857ffffffffffffffffffffffffffffffffffffffffffffffffffffffffffffffffe85604051808060200186815260200185815260200184815260200183815260200180602001838103835288818151815260200191508051906020019080838360005b838110156110c45780820151818401526020810190506110a9565b50505050905090810190601f1680156110f15780820380516001836020036101000a031916815260200191505b508381038252601d8152602001807f506f736974696f6e49734f7574736964654f664669656c644572726f7200000081525060200197505050505050505060405180910390a15b60009150611146565b600191505b5095945050505050565b600080600080600061116287876105e5565b94506001856127108110151561117457fe5b019350612711856127108110151561118857fe5b602091828204019190069054906101000a900460ff16925082156114d95761284f8460405180828054600181600116156101000203166002900480156112055780601f106111e3576101008083540402835291820191611205565b820191906000526020600020905b8154815290600101906020018083116111f1575b50509150509081526020016040518091039020549150600082141561130657611301848054600181600116156101000203166002900480601f0160208091040260200160405190810160405280929190818152602001828054600181600116156101000203166002900480156112bc5780601f10611291576101008083540402835291602001916112bc565b820191906000526020600020905b81548152906001019060200180831161129f57829003601f168201915b50505050508960648a8a6040805190810160405280600481526020017f6865616400000000000000000000000000000000000000000000000000000000815250611d9b565b6114d4565b60008213156113f3576113ee848054600181600116156101000203166002900480601f0160208091040260200160405190810160405280929190818152602001828054600181600116156101000203166002900480156113a75780601f1061137c576101008083540402835291602001916113a7565b820191906000526020600020905b81548152906001019060200180831161138a57829003601f168201915b505050505089606485018a8a6040805190810160405280600481526020017f6865616400000000000000000000000000000000000000000000000000000000815250611d9b565b6114d3565b6114d2848054600181600116156101000203166002900480601f01602080910402602001604051908101604052809291908181526020018280546001816001161561010002031660029004801561148b5780601f106114605761010080835404028352916020019161148b565b820191906000526020600020905b81548152906001019060200180831161146e57829003601f168201915b505050505089846000038a8a6040805190810160405280600481526020017f6865616400000000000000000000000000000000000000000000000000000000815250611d9b565b5b5b611808565b61284f8460405180828054600181600116156101000203166002900480156115385780601f10611516576101008083540402835291820191611538565b820191906000526020600020905b815481529060010190602001808311611524575b5050915050908152602001604051809103902054905060008114156116395761163488858054600181600116156101000203166002900480601f0160208091040260200160405190810160405280929190818152602001828054600181600116156101000203166002900480156115f05780601f106115c5576101008083540402835291602001916115f0565b820191906000526020600020905b8154815290600101906020018083116115d357829003601f168201915b505050505060648a8a6040805190810160405280600481526020017f7461696c00000000000000000000000000000000000000000000000000000000815250611d9b565b611807565b60008113156117265761172188858054600181600116156101000203166002900480601f0160208091040260200160405190810160405280929190818152602001828054600181600116156101000203166002900480156116db5780601f106116b0576101008083540402835291602001916116db565b820191906000526020600020905b8154815290600101906020018083116116be57829003601f168201915b5050505050606484018a8a6040805190810160405280600481526020017f7461696c00000000000000000000000000000000000000000000000000000000815250611d9b565b611806565b61180588858054600181600116156101000203166002900480601f0160208091040260200160405190810160405280929190818152602001828054600181600116156101000203166002900480156117bf5780601f10611794576101008083540402835291602001916117bf565b820191906000526020600020905b8154815290600101906020018083116117a257829003601f168201915b5050505050836000038a8a6040805190810160405280600481526020017f7461696c00000000000000000000000000000000000000000000000000000000815250611d9b565b5b5b5b5050505050505050565b6001810161284c836040518082805190602001908083835b60208310151561184f578051825260208201915060208101905060208303925061182a565b6001836020036101000a0380198251168184511680821785525050505050509050019150509081526020016040518091039020819055505050565b6001810161284d836040518082805190602001908083835b6020831015156118c757805182526020820191506020810190506020830392506118a2565b6001836020036101000a0380198251168184511680821785525050505050509050019150509081526020016040518091039020819055505050565b600080600080600080600061284e886040518082805190602001908083835b6020831015156119465780518252602082019150602081019050602083039250611921565b6001836020036101000a03801982511681845116808217855250505050505090500191505090815260200160405180910390205494504393508484039250600085136119935760006119a5565b600183136119a25760006119a4565b825b5b91508361284e896040518082805190602001908083835b6020831015156119e157805182526020820191506020810190506020830392506119bc565b6001836020036101000a038019825116818451168082178552505050505050905001915050908152602001604051809103902081905550611a228883611a34565b90508181965096505050505050915091565b60008061284f846040518082805190602001908083835b602083101515611a705780518252602082019150602081019050602083039250611a4b565b6001836020036101000a03801982511681845116808217855250505050505090500191505090815260200160405180910390205414158015611b3f57507fffffffffffffffffffffffffffffffffffffffffffffffffffffffffffffffff820261284f846040518082805190602001908083835b602083101515611b095780518252602082019150602081019050602083039250611ae4565b6001836020036101000a038019825116818451168082178552505050505050905001915050908152602001604051809103902054145b15611cab57600061284f846040518082805190602001908083835b602083101515611b7f5780518252602082019150602081019050602083039250611b5a565b6001836020036101000a0380198251168184511680821785525050505050509050019150509081526020016040518091039020541315611c3357600a60000361284f846040518082805190602001908083835b602083101515611bf75780518252602082019150602081019050602083039250611bd2565b6001836020036101000a038019825116818451168082178552505050505050905001915050908152602001604051809103902081905550611ca6565b600a61284f846040518082805190602001908083835b602083101515611c6e5780518252602082019150602081019050602083039250611c49565b6001836020036101000a0380198251168184511680821785525050505050509050019150509081526020016040518091039020819055505b611d26565b8161284f846040518082805190602001908083835b602083101515611ce55780518252602082019150602081019050602083039250611cc0565b6001836020036101000a0380198251168184511680821785525050505050509050019150509081526020016040518091039020600082825401925050819055505b61284f836040518082805190602001908083835b602083101515611d5f5780518252602082019150602081019050602083039250611d3a565b6001836020036101000a038019825116818451168082178552505050505050905001915050908152602001604051809103902054905092915050565b600080611dab8887600003611a34565b91507f25524642b3cd5e6fec0b3689fd2e46571ed2a1223d9fe9b81dcbec9b0295e183888686896000038688604051808060200187815260200186815260200185815260200184815260200180602001838103835289818151815260200191508051906020019080838360005b83811015611e33578082015181840152602081019050611e18565b50505050905090810190601f168015611e605780820380516001836020036101000a031916815260200191505b50838103825284818151815260200191508051906020019080838360005b83811015611e99578082015181840152602081019050611e7e565b50505050905090810190601f168015611ec65780820380516001836020036101000a031916815260200191505b509850505050505050505060405180910390a1611ee38787611a34565b90507f25524642b3cd5e6fec0b3689fd2e46571ed2a1223d9fe9b81dcbec9b0295e183878686898588604051808060200187815260200186815260200185815260200184815260200180602001838103835289818151815260200191508051906020019080838360005b83811015611f68578082015181840152602081019050611f4d565b50505050905090810190601f168015611f955780820380516001836020036101000a031916815260200191505b50838103825284818151815260200191508051906020019080838360005b83811015611fce578082015181840152602081019050611fb3565b50505050905090810190601f168015611ffb5780820380516001836020036101000a031916815260200191505b509850505050505050505060405180910390a15050505050505050565b828054600181600116156101000203166002900490600052602060002090601f016020900481019282601f1061205957805160ff1916838001178555612087565b82800160010185558215612087579182015b8281111561208657825182559160200191906001019061206b565b5b5090506120949190612098565b5090565b6120ba91905b808211156120b657600081600090555060010161209e565b5090565b905600a165627a7a72305820747a7b285acf0054e481a00a4b58c1e7a0b84926e50d10ac7c73e17d6445dac50029",
  "source": "pragma solidity ^0.4.19;\n\ncontract ChainTraze {\n    \n    int constant X_DIM = 100;\n    int constant Y_DIM = 100;\n    int constant FIELD_SIZE = X_DIM*Y_DIM;\n    int constant PENALTY = -2;\n    int constant BUMP = 10;\n    \n    mapping (address => int256) balances;\n    \n    string[FIELD_SIZE] field;\n    bool[FIELD_SIZE] headFlags;\n\n    mapping (address => string) addressToId;\n    mapping (string => address) idToAddress;\n    mapping (string => int) xpositions;\n    mapping (string => int) ypositions;\n    mapping (string => int) lastBlockNumbers;\n    mapping (string => int) totalRewards;\n\n    // The following 4 functions are a workaround to get around an unsolvded Ganache Bug:\n    // https://github.com/trufflesuite/ganache-cli/issues/458\n    // When setting an position from any value > 0 to zero an error occurs\n\n    function setXposition(string id, int pos) internal {\n        xpositions[id] = pos + 1;\n    }\n\n    function getXPosition(string id) view internal returns(int) {\n        return xpositions[id] - 1;\n    }\n    \n    function setYposition(string id, int pos) internal {\n        ypositions[id] = pos + 1;\n    }\n    \n    function getYPosition(string id) view internal returns(int) {\n        return ypositions[id] - 1;\n    }\n    \n    event Position(string id, int x, int y, int reward, int totalReward, string remarks);\n    event Error(string message);\n    event IdAlreadyExistsError(string id);\n    event IdDoesNotExistError(string id);\n    event IdDoesNotBelongToSender(string id);\n    event PositionIsNotFreeError(string id, int x, int y);\n    event PositionIsOutsideOfFieldError(string id, int x, int y);\n    event IdNotValid(string id);\n    \n    function computeIndex(int x, int y) pure internal returns(uint index) {\n        index = uint(y * X_DIM + x);\n    }\n\n    function addReward(string id, int reward) internal returns(int _totalReward) {\n        if(totalRewards[id] != 0 && totalRewards[id] == (reward * -1)) {\n            if(totalRewards[id] > 0) {\n                totalRewards[id] = -BUMP;\n            }\n            else {\n                totalRewards[id] = BUMP;\n            }\n        }\n        else {\n            totalRewards[id] += reward;\n        }\n        return totalRewards[id];\n    }\n\n    function computeReward(string id) internal returns(int _reward, int _totalReward){\n        int lastBlockNumber = lastBlockNumbers[id];\n        int currentBlockNumber = int(block.number);\n        int diff = currentBlockNumber - lastBlockNumber;\n        int reward = lastBlockNumber > 0 ? (diff > 1 ? diff : 0) : 0;\n        lastBlockNumbers[id] = currentBlockNumber;\n        int totalReward = addReward(id, reward);\n        return (reward, totalReward);\n    }\n    \n    function getPositionContent(int x, int y) public view returns(string) {\n        uint index = computeIndex(x, y);\n        return field[index];\n    }\n\n    function checkIdIsValid(string id) internal returns(bool) {\n        address existingAddress = idToAddress[id];\n        if(existingAddress == address(0x0)) {\n            emit IdNotValid(id);\n            return false;\n        }\n\n        return true;\n    }\n    \n    function checkIdIsFree(string id) internal returns(bool) {\n        if(checkIdIsValid(id)) {\n            emit IdAlreadyExistsError(id);\n            return false;\n        }\n        \n        return true;\n    }\n\n    function isInsideField(string id, int x, int y, int currentx, int currenty) internal returns(bool) {\n        if(x < 0 || x >= X_DIM || y < 0 || y >= Y_DIM) {\n            emit PositionIsOutsideOfFieldError(id, x, y);\n            if(checkIdIsValid(id)) {\n                int totalReward = addReward(id, PENALTY);\n                emit Position(id, currentx, currenty, PENALTY, totalReward, \"PositionIsOutsideOfFieldError\");\n            }\n            return false;\n        }\n\n        return true;\n    }\n\n    function sendReward(string fromId, string toId, int reward, int x, int y, string remarks) internal {\n        int fromTotalReward = addReward(fromId, -reward);\n        emit Position(fromId, x, y, -reward, fromTotalReward, remarks);\n        int toTotalReward = addReward(toId, reward);\n        emit Position(toId, x, y, reward, toTotalReward, remarks);\n    }\n\n    function processNotFree(string id, int x, int y) internal {\n        uint index = computeIndex(x, y);\n        string storage idInField = field[index];\n        bool isHead = headFlags[index];\n        if(isHead) {\n            int totalRewardOfIdInField = totalRewards[idInField];\n            if(totalRewardOfIdInField == 0) {\n                sendReward(idInField, id, 100, x, y, \"head\");\n            }\n            else if(totalRewardOfIdInField > 0) {\n                sendReward(idInField, id, totalRewardOfIdInField + 100, x, y, \"head\");\n            }\n            else {\n                sendReward(idInField, id, -totalRewardOfIdInField, x, y, \"head\");\n            }\n        }\n        else {\n            int totalReward = totalRewards[idInField];\n            if(totalReward == 0) {\n                sendReward(id, idInField, 100, x, y, \"tail\");\n            }\n            else if(totalReward > 0) {\n                sendReward(id, idInField, totalReward + 100, x, y, \"tail\");\n            }\n            else {\n                sendReward(id, idInField, -totalReward, x, y, \"tail\");\n            }\n        }\n    }\n\n    function isFree(int x, int y) internal view returns(bool) {\n        uint index = computeIndex(x, y);\n        string storage idInField = field[index];\n        uint len = bytes(idInField).length;\n        return (len == 0);\n    }\n    \n    function goIntoField(string id, int x, int y) internal {\n        uint index = computeIndex(x, y);\n        field[index] = id;\n        setXposition(id, x);\n        setYposition(id, y);\n        int reward;\n        int totalReward;\n        (reward, totalReward) = computeReward(id);\n        emit Position(id, x, y, reward, totalReward, \"move\");\n    }\n\n    function setHeadFlag(bool headFlag, int x, int y) internal {\n        uint index = computeIndex(x, y);\n        headFlags[index] = headFlag;\n    }\n\n    function move(int dx, int dy) internal {\n        string storage id = addressToId[msg.sender];\n        int currentx = getXPosition(id);\n        int currenty = getYPosition(id);\n        int nextx = currentx + dx;\n        int nexty = currenty + dy;\n\n        setHeadFlag(false, currentx, currenty);\n        setHeadFlag(true, nextx, nexty);\n\n        if(isInsideField(id, nextx, nexty, currentx, currenty)) {\n            if(!isFree(nextx, nexty)) {\n                processNotFree(id, nextx, nexty);\n            }\n            goIntoField(id, nextx, nexty);\n        }\n    }\n    \n    function registerId(string id) internal {\n        addressToId[msg.sender] = id;\n        idToAddress[id] = msg.sender;\n    }\n\n    function north() public {\n        move(0, -1);\n    }\n\n    function northwest() public {\n        move(-1, -1);\n    }\n\n    function west() public {\n        move(-1, 0);\n    }\n\n    function southwest() public {\n        move(-1, 1);\n    }\n\n    function south() public {\n        move(0, 1);\n    }\n\n    function southeast() public {\n        move(1, 1);\n    }\n\n    function east() public {\n        move(1, 0);\n    }\n\n    function northeast() public {\n        move(1, -1);\n    }\n    \n    function register(string id, int startx, int starty) public {\n        if(checkIdIsValid(id)) {\n            emit IdAlreadyExistsError(id);\n        }\n        else if(!isFree(startx, starty)) {\n            emit PositionIsNotFreeError(id, startx, starty);\n        }\n        else {\n            registerId(id);\n            goIntoField(id, startx, starty);\n        }\n    }\n}\n",
  "sourcePath": "/Users/oliver/dev/ethereum/BCTron/truffle/contracts/ChainTraze.sol",
  "compiler": {
    "name": "solc",
    "version": "0.4.23+commit.124ca40d.Emscripten.clang"
  },
  "schemaVersion": "2.0.0",
  "updatedAt": "2018-05-01T13:13:53.864Z"
}