{
  "contractName": "ClaimChain",
  "abi": [
    {
      "anonymous": false,
      "inputs": [
        {
          "indexed": false,
          "name": "",
          "type": "string"
        },
        {
          "indexed": false,
          "name": "",
          "type": "address"
        },
        {
          "indexed": false,
          "name": "",
          "type": "uint256"
        },
        {
          "indexed": false,
          "name": "",
          "type": "uint256"
        }
      ],
      "name": "NewClaim",
      "type": "event"
    },
    {
      "anonymous": false,
      "inputs": [
        {
          "indexed": false,
          "name": "",
          "type": "address"
        },
        {
          "indexed": false,
          "name": "",
          "type": "string"
        }
      ],
      "name": "NewName",
      "type": "event"
    },
    {
      "constant": false,
      "inputs": [
        {
          "name": "hash",
          "type": "string"
        }
      ],
      "name": "registerHash",
      "outputs": [],
      "payable": false,
      "stateMutability": "nonpayable",
      "type": "function"
    },
    {
      "constant": false,
      "inputs": [
        {
          "name": "name",
          "type": "string"
        }
      ],
      "name": "registerName",
      "outputs": [],
      "payable": false,
      "stateMutability": "nonpayable",
      "type": "function"
    },
    {
      "constant": true,
      "inputs": [
        {
          "name": "addr",
          "type": "address"
        }
      ],
      "name": "getName",
      "outputs": [
        {
          "name": "",
          "type": "string"
        }
      ],
      "payable": false,
      "stateMutability": "view",
      "type": "function"
    },
    {
      "constant": true,
      "inputs": [
        {
          "name": "hash",
          "type": "string"
        }
      ],
      "name": "numberOfClaimsForHash",
      "outputs": [
        {
          "name": "",
          "type": "uint256"
        }
      ],
      "payable": false,
      "stateMutability": "view",
      "type": "function"
    },
    {
      "constant": true,
      "inputs": [
        {
          "name": "hash",
          "type": "string"
        },
        {
          "name": "index",
          "type": "uint256"
        }
      ],
      "name": "claimerAddressFromHashAndIndex",
      "outputs": [
        {
          "name": "",
          "type": "address"
        }
      ],
      "payable": false,
      "stateMutability": "view",
      "type": "function"
    },
    {
      "constant": true,
      "inputs": [
        {
          "name": "hash",
          "type": "string"
        },
        {
          "name": "index",
          "type": "uint256"
        }
      ],
      "name": "blockNumberFromHashAndIndex",
      "outputs": [
        {
          "name": "",
          "type": "uint256"
        }
      ],
      "payable": false,
      "stateMutability": "view",
      "type": "function"
    },
    {
      "constant": true,
      "inputs": [
        {
          "name": "hash",
          "type": "string"
        },
        {
          "name": "index",
          "type": "uint256"
        }
      ],
      "name": "blockTimestampFromHashAndIndex",
      "outputs": [
        {
          "name": "",
          "type": "uint256"
        }
      ],
      "payable": false,
      "stateMutability": "view",
      "type": "function"
    }
  ],
  "bytecode": "0x608060405234801561001057600080fd5b50610bdc806100206000396000f300608060405260043610610083576000357c0100000000000000000000000000000000000000000000000000000000900463ffffffff16806302039ec3146100885780630830602b1461010f57806343d4f55c146101785780634a0ced241461022b5780635fd4b08a14610294578063ec68f15114610350578063f86e0a03146103cd575b600080fd5b34801561009457600080fd5b506100f9600480360381019080803590602001908201803590602001908080601f016020809104026020016040519081016040528093929190818152602001838380828437820191505050505050919291929080359060200190929190505050610454565b6040518082815260200191505060405180910390f35b34801561011b57600080fd5b50610176600480360381019080803590602001908201803590602001908080601f01602080910402602001604051908101604052809392919081815260200183838082843782019150505050505091929192905050506104ed565b005b34801561018457600080fd5b506101e9600480360381019080803590602001908201803590602001908080601f016020809104026020016040519081016040528093929190818152602001838380828437820191505050505050919291929080359060200190929190505050610614565b604051808273ffffffffffffffffffffffffffffffffffffffff1673ffffffffffffffffffffffffffffffffffffffff16815260200191505060405180910390f35b34801561023757600080fd5b50610292600480360381019080803590602001908201803590602001908080601f01602080910402602001604051908101604052809392919081815260200183838082843782019150505050505091929192905050506106cd565b005b3480156102a057600080fd5b506102d5600480360381019080803573ffffffffffffffffffffffffffffffffffffffff1690602001909291905050506108e2565b6040518080602001828103825283818151815260200191508051906020019080838360005b838110156103155780820151818401526020810190506102fa565b50505050905090810190601f1680156103425780820380516001836020036101000a031916815260200191505b509250505060405180910390f35b34801561035c57600080fd5b506103b7600480360381019080803590602001908201803590602001908080601f01602080910402602001604051908101604052809392919081815260200183838082843782019150505050505091929192905050506109c3565b6040518082815260200191505060405180910390f35b3480156103d957600080fd5b5061043e600480360381019080803590602001908201803590602001908080601f016020809104026020016040519081016040528093929190818152602001838380828437820191505050505050919291929080359060200190929190505050610a3a565b6040518082815260200191505060405180910390f35b6000806000846040518082805190602001908083835b60208310151561048f578051825260208201915060208101905060208303925061046a565b6001836020036101000a0380198251168184511680821785525050505050509050019150509081526020016040518091039020838154811015156104cf57fe5b90600052602060002090600302019050806001015491505092915050565b80600160003373ffffffffffffffffffffffffffffffffffffffff1673ffffffffffffffffffffffffffffffffffffffff1681526020019081526020016000209080519060200190610540929190610ad3565b507fc6d417def143b62f5379652b209985e71c375db7c091b7f127f7e668d718b22c3382604051808373ffffffffffffffffffffffffffffffffffffffff1673ffffffffffffffffffffffffffffffffffffffff16815260200180602001828103825283818151815260200191508051906020019080838360005b838110156105d65780820151818401526020810190506105bb565b50505050905090810190601f1680156106035780820380516001836020036101000a031916815260200191505b50935050505060405180910390a150565b6000806000846040518082805190602001908083835b60208310151561064f578051825260208201915060208101905060208303925061062a565b6001836020036101000a03801982511681845116808217855250505050505090500191505090815260200160405180910390208381548110151561068f57fe5b906000526020600020906003020190508060000160009054906101000a900473ffffffffffffffffffffffffffffffffffffffff1691505092915050565b6106d5610b53565b6060604051908101604052803373ffffffffffffffffffffffffffffffffffffffff1681526020014381526020014281525090506000826040518082805190602001908083835b602083101515610741578051825260208201915060208101905060208303925061071c565b6001836020036101000a0380198251168184511680821785525050505050509050019150509081526020016040518091039020819080600181540180825580915050906001820390600052602060002090600302016000909192909190915060008201518160000160006101000a81548173ffffffffffffffffffffffffffffffffffffffff021916908373ffffffffffffffffffffffffffffffffffffffff16021790555060208201518160010155604082015181600201555050507f166cd8b82c939fd8638b1450c0dd0ca603d59b73ca08e696f9dcff8b6edcb7478233434260405180806020018573ffffffffffffffffffffffffffffffffffffffff1673ffffffffffffffffffffffffffffffffffffffff168152602001848152602001838152602001828103825286818151815260200191508051906020019080838360005b838110156108a1578082015181840152602081019050610886565b50505050905090810190601f1680156108ce5780820380516001836020036101000a031916815260200191505b509550505050505060405180910390a15050565b6060600160008373ffffffffffffffffffffffffffffffffffffffff1673ffffffffffffffffffffffffffffffffffffffff1681526020019081526020016000208054600181600116156101000203166002900480601f0160208091040260200160405190810160405280929190818152602001828054600181600116156101000203166002900480156109b75780601f1061098c576101008083540402835291602001916109b7565b820191906000526020600020905b81548152906001019060200180831161099a57829003601f168201915b50505050509050919050565b600080826040518082805190602001908083835b6020831015156109fc57805182526020820191506020810190506020830392506109d7565b6001836020036101000a0380198251168184511680821785525050505050509050019150509081526020016040518091039020805490509050919050565b6000806000846040518082805190602001908083835b602083101515610a755780518252602082019150602081019050602083039250610a50565b6001836020036101000a038019825116818451168082178552505050505050905001915050908152602001604051809103902083815481101515610ab557fe5b90600052602060002090600302019050806002015491505092915050565b828054600181600116156101000203166002900490600052602060002090601f016020900481019282601f10610b1457805160ff1916838001178555610b42565b82800160010185558215610b42579182015b82811115610b41578251825591602001919060010190610b26565b5b509050610b4f9190610b8b565b5090565b606060405190810160405280600073ffffffffffffffffffffffffffffffffffffffff16815260200160008152602001600081525090565b610bad91905b80821115610ba9576000816000905550600101610b91565b5090565b905600a165627a7a723058208e6faf541297fa5a0f6c2f7eb397228ee27260571358d1e267be51a06261801c0029",
  "source": "pragma solidity ^0.4.19;\n\ncontract ClaimChain {\n\n    struct Claim {\n        address claimer;\n        uint blockNumber;\n        uint blockTimestamp;\n    }\n    \n    event NewClaim(string, address, uint, uint);\n    event NewName(address, string);\n\n    mapping (string => Claim[]) hashToClaim;\n    mapping (address => string) addressToName;\n\n    function registerHash(string hash) public {\n        Claim memory claim = Claim(msg.sender, block.number, block.timestamp);\n        hashToClaim[hash].push(claim);\n        emit NewClaim(hash, msg.sender, block.number, block.timestamp);\n    }\n\n    function registerName(string name) public {\n        addressToName[msg.sender] = name;\n        emit NewName(msg.sender, name);\n    }\n\n    function getName(address addr) public view returns(string) {\n        return addressToName[addr];\n    }\n\n    function numberOfClaimsForHash(string hash) public view returns(uint) {\n        return hashToClaim[hash].length;\n    }\n\n    function claimerAddressFromHashAndIndex(string hash, uint index) public view returns(address) {\n        Claim storage claim =  hashToClaim[hash][index];\n        return claim.claimer;\n    }\n\n    function blockNumberFromHashAndIndex(string hash, uint index) public view returns(uint) {\n        Claim storage claim =  hashToClaim[hash][index];\n        return claim.blockNumber;\n    }\n\n    function blockTimestampFromHashAndIndex(string hash, uint index) public view returns(uint) {\n        Claim storage claim =  hashToClaim[hash][index];\n        return claim.blockTimestamp;\n    }\n}\n",
  "sourcePath": "/Users/oliver/dev/github/claimChain/truffle/contracts/ClaimChain.sol",
  "compiler": {
    "name": "solc",
    "version": "0.4.23+commit.124ca40d.Emscripten.clang"
  },
  "schemaVersion": "2.0.0",
  "updatedAt": "2018-07-15T12:45:16.669Z"
}