{
  "contractName": "ClaimChain",
  "abi": [
    {
      "anonymous": false,
      "inputs": [
        {
          "indexed": false,
          "name": "",
          "type": "string"
        },
        {
          "components": [
            {
              "name": "claimer",
              "type": "address"
            },
            {
              "name": "blockNumber",
              "type": "uint256"
            },
            {
              "name": "blockTimestamp",
              "type": "uint256"
            }
          ],
          "indexed": false,
          "name": "",
          "type": "tuple"
        }
      ],
      "name": "NewClaim",
      "type": "event"
    },
    {
      "anonymous": false,
      "inputs": [
        {
          "indexed": false,
          "name": "",
          "type": "address"
        },
        {
          "indexed": false,
          "name": "",
          "type": "string"
        }
      ],
      "name": "NewName",
      "type": "event"
    },
    {
      "constant": false,
      "inputs": [
        {
          "name": "hash",
          "type": "string"
        }
      ],
      "name": "registerHash",
      "outputs": [],
      "payable": false,
      "stateMutability": "nonpayable",
      "type": "function"
    },
    {
      "constant": false,
      "inputs": [
        {
          "name": "name",
          "type": "string"
        }
      ],
      "name": "registerName",
      "outputs": [],
      "payable": false,
      "stateMutability": "nonpayable",
      "type": "function"
    },
    {
      "constant": true,
      "inputs": [
        {
          "name": "addr",
          "type": "address"
        }
      ],
      "name": "getName",
      "outputs": [
        {
          "name": "",
          "type": "string"
        }
      ],
      "payable": false,
      "stateMutability": "view",
      "type": "function"
    },
    {
      "constant": true,
      "inputs": [
        {
          "name": "hash",
          "type": "string"
        }
      ],
      "name": "claimerAddressFromHash",
      "outputs": [
        {
          "name": "",
          "type": "address"
        }
      ],
      "payable": false,
      "stateMutability": "view",
      "type": "function"
    },
    {
      "constant": true,
      "inputs": [
        {
          "name": "hash",
          "type": "string"
        }
      ],
      "name": "blockNumberFromHash",
      "outputs": [
        {
          "name": "",
          "type": "uint256"
        }
      ],
      "payable": false,
      "stateMutability": "view",
      "type": "function"
    },
    {
      "constant": true,
      "inputs": [
        {
          "name": "hash",
          "type": "string"
        }
      ],
      "name": "blockTimestampFromHash",
      "outputs": [
        {
          "name": "",
          "type": "uint256"
        }
      ],
      "payable": false,
      "stateMutability": "view",
      "type": "function"
    }
  ],
  "bytecode": "0x608060405234801561001057600080fd5b50610a04806100206000396000f300608060405260043610610078576000357c0100000000000000000000000000000000000000000000000000000000900463ffffffff1680630830602b1461007d5780634a0ced24146100e65780635fd4b08a1461014f5780636f596ab31461020b57806377550597146102b45780639fc7243d14610331575b600080fd5b34801561008957600080fd5b506100e4600480360381019080803590602001908201803590602001908080601f01602080910402602001604051908101604052809392919081815260200183838082843782019150505050505091929192905050506103ae565b005b3480156100f257600080fd5b5061014d600480360381019080803590602001908201803590602001908080601f01602080910402602001604051908101604052809392919081815260200183838082843782019150505050505091929192905050506104d5565b005b34801561015b57600080fd5b50610190600480360381019080803573ffffffffffffffffffffffffffffffffffffffff169060200190929190505050610683565b6040518080602001828103825283818151815260200191508051906020019080838360005b838110156101d05780820151818401526020810190506101b5565b50505050905090810190601f1680156101fd5780820380516001836020036101000a031916815260200191505b509250505060405180910390f35b34801561021757600080fd5b50610272600480360381019080803590602001908201803590602001908080601f0160208091040260200160405190810160405280939291908181526020018383808284378201915050505050509192919290505050610764565b604051808273ffffffffffffffffffffffffffffffffffffffff1673ffffffffffffffffffffffffffffffffffffffff16815260200191505060405180910390f35b3480156102c057600080fd5b5061031b600480360381019080803590602001908201803590602001908080601f0160208091040260200160405190810160405280939291908181526020018383808284378201915050505050509192919290505050610801565b6040518082815260200191505060405180910390f35b34801561033d57600080fd5b50610398600480360381019080803590602001908201803590602001908080601f016020809104026020016040519081016040528093929190818152602001838380828437820191505050505050919291929050505061087e565b6040518082815260200191505060405180910390f35b80600160003373ffffffffffffffffffffffffffffffffffffffff1673ffffffffffffffffffffffffffffffffffffffff16815260200190815260200160002090805190602001906104019291906108fb565b507fc6d417def143b62f5379652b209985e71c375db7c091b7f127f7e668d718b22c3382604051808373ffffffffffffffffffffffffffffffffffffffff1673ffffffffffffffffffffffffffffffffffffffff16815260200180602001828103825283818151815260200191508051906020019080838360005b8381101561049757808201518184015260208101905061047c565b50505050905090810190601f1680156104c45780820380516001836020036101000a031916815260200191505b50935050505060405180910390a150565b6104dd61097b565b6060604051908101604052803373ffffffffffffffffffffffffffffffffffffffff168152602001438152602001428152509050806000836040518082805190602001908083835b60208310151561054a5780518252602082019150602081019050602083039250610525565b6001836020036101000a038019825116818451168082178552505050505050905001915050908152602001604051809103902060008201518160000160006101000a81548173ffffffffffffffffffffffffffffffffffffffff021916908373ffffffffffffffffffffffffffffffffffffffff16021790555060208201518160010155604082015181600201559050507fc06d4e13df597cda8e765dd27ae6169a93a7e35faa4ecc50699b53ae8bd120d682826040518080602001838152602001828103825284818151815260200191508051906020019080838360005b83811015610644578082015181840152602081019050610629565b50505050905090810190601f1680156106715780820380516001836020036101000a031916815260200191505b50935050505060405180910390a15050565b6060600160008373ffffffffffffffffffffffffffffffffffffffff1673ffffffffffffffffffffffffffffffffffffffff1681526020019081526020016000208054600181600116156101000203166002900480601f0160208091040260200160405190810160405280929190818152602001828054600181600116156101000203166002900480156107585780601f1061072d57610100808354040283529160200191610758565b820191906000526020600020905b81548152906001019060200180831161073b57829003601f168201915b50505050509050919050565b6000806000836040518082805190602001908083835b60208310151561079f578051825260208201915060208101905060208303925061077a565b6001836020036101000a038019825116818451168082178552505050505050905001915050908152602001604051809103902090508060000160009054906101000a900473ffffffffffffffffffffffffffffffffffffffff16915050919050565b6000806000836040518082805190602001908083835b60208310151561083c5780518252602082019150602081019050602083039250610817565b6001836020036101000a038019825116818451168082178552505050505050905001915050908152602001604051809103902090508060010154915050919050565b6000806000836040518082805190602001908083835b6020831015156108b95780518252602082019150602081019050602083039250610894565b6001836020036101000a038019825116818451168082178552505050505050905001915050908152602001604051809103902090508060020154915050919050565b828054600181600116156101000203166002900490600052602060002090601f016020900481019282601f1061093c57805160ff191683800117855561096a565b8280016001018555821561096a579182015b8281111561096957825182559160200191906001019061094e565b5b50905061097791906109b3565b5090565b606060405190810160405280600073ffffffffffffffffffffffffffffffffffffffff16815260200160008152602001600081525090565b6109d591905b808211156109d15760008160009055506001016109b9565b5090565b905600a165627a7a72305820f535b1988d994e2092e59d4d2a986277fc68634d4317189ba9b9f814807025900029",
  "source": "pragma solidity ^0.4.19;\n\ncontract ClaimChain {\n\n    struct Claim {\n        address claimer;\n        uint blockNumber;\n        uint blockTimestamp;\n    }\n    \n    event NewClaim(string, Claim);\n    event NewName(address, string);\n\n    mapping (string => Claim) hashToClaim;\n    mapping (address => string) addressToName;\n\n    function registerHash(string hash) public {\n        Claim memory claim = Claim(msg.sender, block.number, block.timestamp);\n        hashToClaim[hash] = claim;\n        emit NewClaim(hash, claim);\n    }\n\n    function registerName(string name) public {\n        addressToName[msg.sender] = name;\n        emit NewName(msg.sender, name);\n    }\n\n    function getName(address addr) public view returns(string) {\n        return addressToName[addr];\n    }\n\n    function claimerAddressFromHash(string hash) public view returns(address) {\n        Claim storage claim =  hashToClaim[hash];\n        return claim.claimer;\n    }\n\n    function blockNumberFromHash(string hash) public view returns(uint) {\n        Claim storage claim =  hashToClaim[hash];\n        return claim.blockNumber;\n    }\n\n    function blockTimestampFromHash(string hash) public view returns(uint) {\n        Claim storage claim =  hashToClaim[hash];\n        return claim.blockTimestamp;\n    }\n}\n",
  "sourcePath": "/Users/oliver/dev/github/claimChain/truffle/contracts/ClaimChain.sol",
  "compiler": {
    "name": "solc",
    "version": "0.4.23+commit.124ca40d.Emscripten.clang"
  },
  "schemaVersion": "2.0.0",
  "updatedAt": "2018-06-30T09:09:05.025Z"
}