{
  "contractName": "SlowSnakes",
  "abi": [
    {
      "anonymous": false,
      "inputs": [
        {
          "indexed": false,
          "name": "id",
          "type": "string"
        },
        {
          "indexed": false,
          "name": "x",
          "type": "int256"
        },
        {
          "indexed": false,
          "name": "y",
          "type": "int256"
        },
        {
          "indexed": false,
          "name": "reward",
          "type": "int256"
        },
        {
          "indexed": false,
          "name": "totalReward",
          "type": "int256"
        },
        {
          "indexed": false,
          "name": "remarks",
          "type": "string"
        },
        {
          "indexed": false,
          "name": "blockNumberOfBirth",
          "type": "int256"
        }
      ],
      "name": "Position",
      "type": "event"
    },
    {
      "anonymous": false,
      "inputs": [
        {
          "indexed": false,
          "name": "id",
          "type": "string"
        }
      ],
      "name": "IdAlreadyExistsError",
      "type": "event"
    },
    {
      "anonymous": false,
      "inputs": [
        {
          "indexed": false,
          "name": "id",
          "type": "string"
        }
      ],
      "name": "IdDoesNotExistError",
      "type": "event"
    },
    {
      "anonymous": false,
      "inputs": [
        {
          "indexed": false,
          "name": "id",
          "type": "string"
        }
      ],
      "name": "IdTooShortError",
      "type": "event"
    },
    {
      "anonymous": false,
      "inputs": [
        {
          "indexed": false,
          "name": "id",
          "type": "string"
        }
      ],
      "name": "IdTooLongError",
      "type": "event"
    },
    {
      "anonymous": false,
      "inputs": [
        {
          "indexed": false,
          "name": "id",
          "type": "string"
        },
        {
          "indexed": false,
          "name": "x",
          "type": "int256"
        },
        {
          "indexed": false,
          "name": "y",
          "type": "int256"
        }
      ],
      "name": "PositionIsNotFreeError",
      "type": "event"
    },
    {
      "anonymous": false,
      "inputs": [
        {
          "indexed": false,
          "name": "id",
          "type": "string"
        },
        {
          "indexed": false,
          "name": "x",
          "type": "int256"
        },
        {
          "indexed": false,
          "name": "y",
          "type": "int256"
        }
      ],
      "name": "PositionIsOutsideOfFieldError",
      "type": "event"
    },
    {
      "anonymous": false,
      "inputs": [
        {
          "indexed": false,
          "name": "id",
          "type": "string"
        }
      ],
      "name": "IdDoesNotYetExist",
      "type": "event"
    },
    {
      "anonymous": false,
      "inputs": [
        {
          "indexed": false,
          "name": "id",
          "type": "string"
        },
        {
          "indexed": false,
          "name": "x",
          "type": "int256"
        },
        {
          "indexed": false,
          "name": "y",
          "type": "int256"
        }
      ],
      "name": "NewHead",
      "type": "event"
    },
    {
      "anonymous": false,
      "inputs": [
        {
          "indexed": false,
          "name": "id",
          "type": "string"
        },
        {
          "indexed": false,
          "name": "x",
          "type": "int256"
        },
        {
          "indexed": false,
          "name": "y",
          "type": "int256"
        }
      ],
      "name": "HeadCollisionNotYetAllowed",
      "type": "event"
    },
    {
      "anonymous": false,
      "inputs": [
        {
          "indexed": false,
          "name": "flag",
          "type": "bool"
        },
        {
          "indexed": false,
          "name": "index",
          "type": "uint256"
        }
      ],
      "name": "SetHeadFlag",
      "type": "event"
    },
    {
      "anonymous": false,
      "inputs": [
        {
          "indexed": false,
          "name": "flag",
          "type": "bool"
        },
        {
          "indexed": false,
          "name": "index",
          "type": "uint256"
        }
      ],
      "name": "GetHeadFlag",
      "type": "event"
    },
    {
      "constant": true,
      "inputs": [
        {
          "name": "x",
          "type": "int256"
        },
        {
          "name": "y",
          "type": "int256"
        }
      ],
      "name": "getPositionContent",
      "outputs": [
        {
          "name": "",
          "type": "string"
        }
      ],
      "payable": false,
      "stateMutability": "view",
      "type": "function"
    },
    {
      "constant": false,
      "inputs": [],
      "name": "north",
      "outputs": [],
      "payable": false,
      "stateMutability": "nonpayable",
      "type": "function"
    },
    {
      "constant": false,
      "inputs": [],
      "name": "west",
      "outputs": [],
      "payable": false,
      "stateMutability": "nonpayable",
      "type": "function"
    },
    {
      "constant": false,
      "inputs": [],
      "name": "south",
      "outputs": [],
      "payable": false,
      "stateMutability": "nonpayable",
      "type": "function"
    },
    {
      "constant": false,
      "inputs": [],
      "name": "east",
      "outputs": [],
      "payable": false,
      "stateMutability": "nonpayable",
      "type": "function"
    },
    {
      "constant": false,
      "inputs": [
        {
          "name": "id",
          "type": "string"
        },
        {
          "name": "startx",
          "type": "int256"
        },
        {
          "name": "starty",
          "type": "int256"
        }
      ],
      "name": "register",
      "outputs": [],
      "payable": false,
      "stateMutability": "nonpayable",
      "type": "function"
    }
  ],
  "bytecode": "0x608060405234801561001057600080fd5b50611d90806100206000396000f300608060405260043610610078576000357c0100000000000000000000000000000000000000000000000000000000900463ffffffff1680630f906a7f1461007d5780638e1bb1641461012d578063a01d1f1b146101aa578063acdb3767146101c1578063b3faad74146101d8578063c9452f3f146101ef575b600080fd5b34801561008957600080fd5b506100b26004803603810190808035906020019092919080359060200190929190505050610206565b6040518080602001828103825283818151815260200191508051906020019080838360005b838110156100f25780820151818401526020810190506100d7565b50505050905090810190601f16801561011f5780820380516001836020036101000a031916815260200191505b509250505060405180910390f35b34801561013957600080fd5b506101a8600480360381019080803590602001908201803590602001908080601f016020809104026020016040519081016040528093929190818152602001838380828437820191505050505050919291929080359060200190929190803590602001909291905050506102c9565b005b3480156101b657600080fd5b506101bf610463565b005b3480156101cd57600080fd5b506101d6610471565b005b3480156101e457600080fd5b506101ed61049e565b005b3480156101fb57600080fd5b506102046104ac565b005b6060600061021484846104d9565b90506001816127108110151561022657fe5b018054600181600116156101000203166002900480601f0160208091040260200160405190810160405280929190818152602001828054600181600116156101000203166002900480156102bb5780601f10610290576101008083540402835291602001916102bb565b820191906000526020600020905b81548152906001019060200180831161029e57829003601f168201915b505050505091505092915050565b6102d2836104e9565b1561045e576102e083610657565b15610386577f6877d48504b156664ba9af677c64340929ba1fed4dd731f11485596348372681836040518080602001828103825283818151815260200191508051906020019080838360005b8381101561034757808201518184015260208101905061032c565b50505050905090810190601f1680156103745780820380516001836020036101000a031916815260200191505b509250505060405180910390a161045d565b61039082826107ce565b1515610447577fadda1a0ca60375fc9ea11be056e4a3dbb9451976e0ecb34f2b1129beef6e3e038383836040518080602001848152602001838152602001828103825285818151815260200191508051906020019080838360005b838110156104065780820151818401526020810190506103eb565b50505050905090810190601f1680156104335780820380516001836020036101000a031916815260200191505b5094505050505060405180910390a161045c565b6104508361081a565b61045b83838361098e565b5b5b5b505050565b61046f60006001610ba5565b565b61049c7fffffffffffffffffffffffffffffffffffffffffffffffffffffffffffffffff6000610ba5565b565b6104aa60016000610ba5565b565b6104d760007fffffffffffffffffffffffffffffffffffffffffffffffffffffffffffffffff610ba5565b565b6000826064830201905092915050565b60008082519050600381101561059e577fe0dbecbac4e12ce74f3e7c54819b1998b86cc771fb0ccad1e99e3d4cb14ac431836040518080602001828103825283818151815260200191508051906020019080838360005b8381101561055b578082015181840152602081019050610540565b50505050905090810190601f1680156105885780820380516001836020036101000a031916815260200191505b509250505060405180910390a160009150610651565b600a81111561064c577f90cb0dba6516dbfec31b543e994b3e4dd253f3b1401a184d282baacc634dc462836040518080602001828103825283818151815260200191508051906020019080838360005b838110156106095780820151818401526020810190506105ee565b50505050905090810190601f1680156106365780820380516001836020036101000a031916815260200191505b509250505060405180910390a160009150610651565b600191505b50919050565b60008061284b836040518082805190602001908083835b602083101515610693578051825260208201915060208101905060208303925061066e565b6001836020036101000a038019825116818451168082178552505050505050905001915050908152602001604051809103902060009054906101000a900473ffffffffffffffffffffffffffffffffffffffff169050600073ffffffffffffffffffffffffffffffffffffffff168173ffffffffffffffffffffffffffffffffffffffff1614156107c3577feffa406ec8ea2863709089735f8935df659147fa0f58059063e4ec21c535bd02836040518080602001828103825283818151815260200191508051906020019080838360005b83811015610780578082015181840152602081019050610765565b50505050905090810190601f1680156107ad5780820380516001836020036101000a031916815260200191505b509250505060405180910390a1600091506107c8565b600191505b50919050565b6000806000806107de86866104d9565b9250600183612710811015156107f057fe5b01915081805460018160011615610100020316600290049050905060008114935050505092915050565b8061284a60003373ffffffffffffffffffffffffffffffffffffffff1673ffffffffffffffffffffffffffffffffffffffff168152602001908152602001600020908051906020019061086e929190611cbf565b503361284b826040518082805190602001908083835b6020831015156108a95780518252602082019150602081019050602083039250610884565b6001836020036101000a038019825116818451168082178552505050505050905001915050908152602001604051809103902060006101000a81548173ffffffffffffffffffffffffffffffffffffffff021916908373ffffffffffffffffffffffffffffffffffffffff16021790555043612850826040518082805190602001908083835b602083101515610954578051825260208201915060208101905060208303925061092f565b6001836020036101000a03801982511681845116808217855250505050505090500191505090815260200160405180910390208190555050565b6000807f6896c74fb6e832d8416b732bd29a26fe596b8a55825bedc6c7c4dc79967f3ac88585856040518080602001848152602001838152602001828103825285818151815260200191508051906020019080838360005b83811015610a015780820151818401526020810190506109e6565b50505050905090810190601f168015610a2e5780820380516001836020036101000a031916815260200191505b5094505050505060405180910390a1610a4784846104d9565b91508460018361271081101515610a5a57fe5b019080519060200190610a6e929190611cbf565b508361284c866040518082805190602001908083835b602083101515610aa95780518252602082019150602081019050602083039250610a84565b6001836020036101000a0380198251168184511680821785525050505050509050019150509081526020016040518091039020819055508261284d866040518082805190602001908083835b602083101515610b1a5780518252602082019150602081019050602083039250610af5565b6001836020036101000a038019825116818451168082178552505050505050905001915050908152602001604051809103902081905550610b5a85610f09565b9050610b9e858286866040805190810160405280600481526020017f6d6f766500000000000000000000000000000000000000000000000000000000815250610faa565b5050505050565b600080600080600061284a60003373ffffffffffffffffffffffffffffffffffffffff1673ffffffffffffffffffffffffffffffffffffffff168152602001908152602001600020945061284c856040518082805460018160011615610100020316600290048015610c4e5780601f10610c2c576101008083540402835291820191610c4e565b820191906000526020600020905b815481529060010190602001808311610c3a575b5050915050908152602001604051809103902054935061284d856040518082805460018160011615610100020316600290048015610cc35780601f10610ca1576101008083540402835291820191610cc3565b820191906000526020600020905b815481529060010190602001808311610caf575b5050915050908152602001604051809103902054925086840191508583019050610d89858054600181600116156101000203166002900480601f016020809104026020016040519081016040528092919081815260200182805460018160011615610100020316600290048015610d7b5780601f10610d5057610100808354040283529160200191610d7b565b820191906000526020600020905b815481529060010190602001808311610d5e57829003601f168201915b5050505050838387876112b0565b15610f0057610d9882826107ce565b1515610e4357610e42858054600181600116156101000203166002900480601f016020809104026020016040519081016040528092919081815260200182805460018160011615610100020316600290048015610e365780601f10610e0b57610100808354040283529160200191610e36565b820191906000526020600020905b815481529060010190602001808311610e1957829003601f168201915b50505050508383611411565b5b610e4f60008585611853565b610e5b60018383611853565b610eff858054600181600116156101000203166002900480601f016020809104026020016040519081016040528092919081815260200182805460018160011615610100020316600290048015610ef35780601f10610ec857610100808354040283529160200191610ef3565b820191906000526020600020905b815481529060010190602001808311610ed657829003601f168201915b5050505050838361098e565b5b50505050505050565b600080600080600061284e866040518082805190602001908083835b602083101515610f4a5780518252602082019150602081019050602083039250610f25565b6001836020036101000a0380198251168184511680821785525050505050509050019150509081526020016040518091039020549350439250838303915060008413610f97576000610f9c565b606482035b905080945050505050919050565b6000808561284f886040518082805190602001908083835b602083101515610fe75780518252602082019150602081019050602083039250610fc2565b6001836020036101000a038019825116818451168082178552505050505050905001915050908152602001604051809103902060008282540192505081905550612850876040518082805190602001908083835b602083101515611060578051825260208201915060208101905060208303925061103b565b6001836020036101000a03801982511681845116808217855250505050505090500191505090815260200160405180910390205491507fba72c1ef0077cdf72189f7bec373ce0a4aeb767468e483b4385df9de4abfe6988786868961284f8c6040518082805190602001908083835b6020831015156110f457805182526020820191506020810190506020830392506110cf565b6001836020036101000a038019825116818451168082178552505050505050905001915050908152602001604051809103902054888860405180806020018881526020018781526020018681526020018581526020018060200184815260200183810383528a818151815260200191508051906020019080838360005b8381101561118c578082015181840152602081019050611171565b50505050905090810190601f1680156111b95780820380516001836020036101000a031916815260200191505b50838103825285818151815260200191508051906020019080838360005b838110156111f25780820151818401526020810190506111d7565b50505050905090810190601f16801561121f5780820380516001836020036101000a031916815260200191505b50995050505050505050505060405180910390a14390508061284e886040518082805190602001908083835b602083101515611270578051825260208201915060208101905060208303925061124b565b6001836020036101000a03801982511681845116808217855250505050505090500191505090815260200160405180910390208190555050505050505050565b6000808512806112c1575060648512155b806112cc5750600084125b806112d8575060648412155b15611403577fb72338d3ca272f01819a720af9798f841cf63bcde99f4ddc91e2ee35559e35fc8686866040518080602001848152602001838152602001828103825285818151815260200191508051906020019080838360005b8381101561134d578082015181840152602081019050611332565b50505050905090810190601f16801561137a5780820380516001836020036101000a031916815260200191505b5094505050505060405180910390a161139286610657565b156113fa576113f9867fffffffffffffffffffffffffffffffffffffffffffffffffffffffffffffff9c85856040805190810160405280601d81526020017f506f736974696f6e49734f7574736964654f664669656c644572726f72000000815250610faa565b5b60009050611408565b600190505b95945050505050565b600080600061142085856104d9565b92506001836127108110151561143257fe5b0191508160405180828054600181600116156101000203166002900480156114915780601f1061146f576101008083540402835291820191611491565b820191906000526020600020905b81548152906001019060200180831161147d575b5050915050604051809103902060001916866040518082805190602001908083835b6020831015156114d857805182526020820191506020810190506020830392506114b3565b6001836020036101000a038019825116818451168082178552505050505050905001915050604051809103902060001916141561151f5761151a8686866118db565b61184b565b612711836127108110151561153057fe5b602091828204019190069054906101000a900460ff1690507f719a142dcf5de0df45867667b6404d0b505fc4cabe2ddec781fbc0304a9e11a9818460405180831515151581526020018281526020019250505060405180910390a180156117a4576103e861159d876119ef565b12156116f9577fa460dc2d503ee23c002f484fb6878f418f1c8f15b5119530e4fa6329157214df8686866040518080602001848152602001838152602001828103825285818151815260200191508051906020019080838360005b838110156116135780820151818401526020810190506115f8565b50505050905090810190601f1680156116405780820380516001836020036101000a031916815260200191505b5094505050505060405180910390a16116f486838054600181600116156101000203166002900480601f0160208091040260200160405190810160405280929190818152602001828054600181600116156101000203166002900480156116e85780601f106116bd576101008083540402835291602001916116e8565b820191906000526020600020905b8154815290600101906020018083116116cb57829003601f168201915b50505050508787611a72565b61179f565b61179e86838054600181600116156101000203166002900480601f0160208091040260200160405190810160405280929190818152602001828054600181600116156101000203166002900480156117925780601f1061176757610100808354040283529160200191611792565b820191906000526020600020905b81548152906001019060200180831161177557829003601f168201915b50505050508787611b86565b5b61184a565b61184986838054600181600116156101000203166002900480601f01602080910402602001604051908101604052809291908181526020018280546001816001161561010002031660029004801561183d5780601f106118125761010080835404028352916020019161183d565b820191906000526020600020905b81548152906001019060200180831161182057829003601f168201915b50505050508787611a72565b5b5b505050505050565b600061185f83836104d9565b90507f32e818ac136adbd0e99291d3d74d2098a221ff201c222ecfd3d54333131a9c6f848260405180831515151581526020018281526020019250505060405180910390a18361271182612710811015156118b657fe5b602091828204019190066101000a81548160ff02191690831515021790555050505050565b600061284f846040518082805190602001908083835b60208310151561191657805182526020820191506020810190506020830392506118f1565b6001836020036101000a03801982511681845116808217855250505050505090500191505090815260200160405180910390205490506000811215156119a35761199e846064836000030385856040805190810160405280600481526020017f73656c6600000000000000000000000000000000000000000000000000000000815250610faa565b6119e9565b6119e8848260000385856040805190810160405280600481526020017f73656c6600000000000000000000000000000000000000000000000000000000815250610faa565b5b50505050565b6000806000439150612850846040518082805190602001908083835b602083101515611a305780518252602082019150602081019050602083039250611a0b565b6001836020036101000a038019825116818451168082178552505050505050905001915050908152602001604051809103902054905080820392505050919050565b600061284f856040518082805190602001908083835b602083101515611aad5780518252602082019150602081019050602083039250611a88565b6001836020036101000a0380198251168184511680821785525050505050509050019150509081526020016040518091039020549050600081121515611b3857611b3385856064840186866040805190810160405280600481526020017f7461696c00000000000000000000000000000000000000000000000000000000815250611c9a565b611b7f565b611b7e85858360000386866040805190810160405280600481526020017f7461696c00000000000000000000000000000000000000000000000000000000815250611c9a565b5b5050505050565b600061284f846040518082805190602001908083835b602083101515611bc15780518252602082019150602081019050602083039250611b9c565b6001836020036101000a0380198251168184511680821785525050505050509050019150509081526020016040518091039020549050600081121515611c4c57611c4784866064840186866040805190810160405280600481526020017f6865616400000000000000000000000000000000000000000000000000000000815250611c9a565b611c93565b611c9284868360000386866040805190810160405280600481526020017f6865616400000000000000000000000000000000000000000000000000000000815250611c9a565b5b5050505050565b611caa8685600003858585610faa565b611cb78585858585610faa565b505050505050565b828054600181600116156101000203166002900490600052602060002090601f016020900481019282601f10611d0057805160ff1916838001178555611d2e565b82800160010185558215611d2e579182015b82811115611d2d578251825591602001919060010190611d12565b5b509050611d3b9190611d3f565b5090565b611d6191905b80821115611d5d576000816000905550600101611d45565b5090565b905600a165627a7a7230582023b6ebf6a229eccc84b5aaa267a91aea8fad57ed38b4134b2ade31585a1231340029",
  "source": "pragma solidity ^0.4.19;\n\ncontract SlowSnakes {\n    \n    int constant X_DIM = 100;\n    int constant Y_DIM = 100;\n    int constant FIELD_SIZE = X_DIM*Y_DIM;\n    int constant PENALTY = -100;\n    int constant BUMP = 100;\n    int constant MIN_BLOCK_COUNT_BEFORE_HEAD_COLLISION_ALLOWED = 1000;\n    int constant MIN_REWARD = 100;\n    \n    mapping (address => int256) balances;\n    \n    string[FIELD_SIZE] field;\n    bool[FIELD_SIZE] headFlags;\n\n    mapping (address => string) addressToId;\n    mapping (string => address) idToAddress;\n    mapping (string => int) xpositions;\n    mapping (string => int) ypositions;\n    mapping (string => int) lastBlockNumbers;\n    mapping (string => int) totalRewards;\n    mapping (string => int) blockNumbersOfBirth;\n\n    event Position(string id, int x, int y, int reward, int totalReward, string remarks, int blockNumberOfBirth);\n    event IdAlreadyExistsError(string id);\n    event IdDoesNotExistError(string id);\n    event IdTooShortError(string id);\n    event IdTooLongError(string id);\n    event PositionIsNotFreeError(string id, int x, int y);\n    event PositionIsOutsideOfFieldError(string id, int x, int y);\n    event IdDoesNotYetExist(string id);\n    event NewHead(string id, int x, int y);\n    event HeadCollisionNotYetAllowed(string id, int x, int y);\n\n    event SetHeadFlag(bool flag, uint index);\n    event GetHeadFlag(bool flag, uint index);\n\n    function computeIndex(int x, int y) pure internal returns(uint index) {\n        index = uint(y * X_DIM + x);\n    }\n\n    function addReward(string id, int reward, int x, int y, string remarks) internal {\n        totalRewards[id] += reward;\n        int blockNumberOfBirth = blockNumbersOfBirth[id];\n        emit Position(id, x, y, reward, totalRewards[id], remarks, blockNumberOfBirth);\n        int currentBlockNumber = int(block.number);\n        lastBlockNumbers[id] = currentBlockNumber;\n    }\n\n    function computeReward(string id) internal view returns(int _reward){\n        int lastBlockNumber = lastBlockNumbers[id];\n        int currentBlockNumber = int(block.number);\n        int diff = currentBlockNumber - lastBlockNumber;\n        int reward = lastBlockNumber > 0 ? diff - MIN_REWARD : 0;\n        return reward;\n    }\n    \n    function getPositionContent(int x, int y) public view returns(string) {\n        uint index = computeIndex(x, y);\n        return field[index];\n    }\n\n    function checkIdIsValid(string id) internal returns(bool) {\n        uint len = bytes(id).length;\n        if(len < 3) {\n            emit IdTooShortError(id);\n            return false;\n        }\n\n        if(len > 10) {\n            emit IdTooLongError(id);\n            return false;\n        }\n\n        return true;\n    }\n\n    function checkIdDoesExist(string id) internal returns(bool) {\n        address existingAddress = idToAddress[id];\n        if(existingAddress == address(0x0)) {\n            emit IdDoesNotYetExist(id);\n            return false;\n        }\n\n        return true;\n    }\n    \n    function checkIdIsFree(string id) internal returns(bool) {\n        if(checkIdDoesExist(id)) {\n            emit IdAlreadyExistsError(id);\n            return false;\n        }\n        \n        return true;\n    }\n\n    function isInsideField(string id, int x, int y, int currentx, int currenty) internal returns(bool) {\n        if(x < 0 || x >= X_DIM || y < 0 || y >= Y_DIM) {\n            emit PositionIsOutsideOfFieldError(id, x, y);\n            if(checkIdDoesExist(id)) {\n                addReward(id, PENALTY, currentx, currenty, \"PositionIsOutsideOfFieldError\");\n            }\n            return false;\n        }\n\n        return true;\n    }\n\n    function sendReward(string fromId, string toId, int reward, int x, int y, string remarks) internal {\n        addReward(fromId, -reward, x, y, remarks);\n        addReward(toId, reward, x, y, remarks);\n    }\n\n    function processHeadCollision(string id, string otherId, int x, int y) internal {\n        int otherTotalReward = totalRewards[otherId];\n        if(otherTotalReward >= 0) {\n            sendReward(otherId, id, otherTotalReward + BUMP, x, y, \"head\");\n        }\n        else {\n            sendReward(otherId, id, -otherTotalReward, x, y, \"head\");\n        }\n    }\n\n    function processTailCollision(string id, string otherId, int x, int y) internal {\n        int totalReward = totalRewards[id];\n        if(totalReward >= 0) {\n            sendReward(id, otherId, totalReward + BUMP, x, y, \"tail\");\n        }\n        else {\n            sendReward(id, otherId, -totalReward, x, y, \"tail\");\n        }\n    }\n\n    function processSelfCollision(string id, int x, int y) internal {\n        int totalReward = totalRewards[id];\n        if(totalReward >= 0) {\n            addReward(id, -totalReward - BUMP, x, y, \"self\");\n        }\n        else {\n            addReward(id, -totalReward, x, y, \"self\");\n        }\n    }\n\n    function age(string id) internal view returns(int) {\n        int currentBlockNumber = int(block.number);\n        int blockNumberOfBirth = blockNumbersOfBirth[id];\n        return currentBlockNumber - blockNumberOfBirth;\n    }\n\n    function processCollision(string id, int x, int y) internal {\n        uint index = computeIndex(x, y);\n        string storage otherId = field[index];\n        if(keccak256(id) == keccak256(otherId)) {\n            processSelfCollision(id, x, y);\n        }\n        else {\n            bool isHead = headFlags[index];\n            emit GetHeadFlag(isHead, index);\n            if(isHead) {\n                if(age(id) < MIN_BLOCK_COUNT_BEFORE_HEAD_COLLISION_ALLOWED) {\n                    emit HeadCollisionNotYetAllowed(id, x, y);\n                    processTailCollision(id, otherId, x, y);\n                }\n                else {\n                    processHeadCollision(id, otherId, x, y);\n                }\n            }\n            else {\n                processTailCollision(id, otherId, x, y);\n            }\n        }\n    }\n\n    function isFree(int x, int y) internal view returns(bool) {\n        uint index = computeIndex(x, y);\n        string storage idInField = field[index];\n        uint len = bytes(idInField).length;\n        return (len == 0);\n    }\n    \n    function goIntoField(string id, int x, int y) internal {\n        emit NewHead(id, x, y);\n        uint index = computeIndex(x, y);\n        field[index] = id;\n        xpositions[id] = x;\n        ypositions[id] = y;\n        int reward = computeReward(id);\n        addReward(id, reward, x, y, \"move\");\n    }\n\n    function setHeadFlag(bool headFlag, int x, int y) internal {\n        uint index = computeIndex(x, y);\n        emit SetHeadFlag(headFlag, index);\n        headFlags[index] = headFlag;\n    }\n\n    function move(int dx, int dy) internal {\n        string storage id = addressToId[msg.sender];\n        int currentx = xpositions[id];\n        int currenty = ypositions[id];\n        int nextx = currentx + dx;\n        int nexty = currenty + dy;\n\n        if(isInsideField(id, nextx, nexty, currentx, currenty)) {\n            if(!isFree(nextx, nexty)) {\n                processCollision(id, nextx, nexty);\n            }\n            setHeadFlag(false, currentx, currenty);\n            setHeadFlag(true, nextx, nexty);\n            goIntoField(id, nextx, nexty);\n        }\n    }\n    \n    function registerId(string id) internal {\n        addressToId[msg.sender] = id;\n        idToAddress[id] = msg.sender;\n        blockNumbersOfBirth[id] = int(block.number);\n    }\n\n    function north() public {\n        move(0, -1);\n    }\n\n    function west() public {\n        move(-1, 0);\n    }\n\n    function south() public {\n        move(0, 1);\n    }\n\n    function east() public {\n        move(1, 0);\n    }\n\n    function register(string id, int startx, int starty) public {\n        if(checkIdIsValid(id)) {\n            if(checkIdDoesExist(id)) {\n                emit IdAlreadyExistsError(id);\n            }\n            else if(!isFree(startx, starty)) {\n                emit PositionIsNotFreeError(id, startx, starty);\n            }\n            else {\n                registerId(id);\n                goIntoField(id, startx, starty);\n            }\n        }\n    }\n}\n",
  "sourcePath": "/Users/oliver/dev/ethereum/BCTron/truffle/contracts/SlowSnakes.sol",
  "compiler": {
    "name": "solc",
    "version": "0.4.23+commit.124ca40d.Emscripten.clang"
  },
  "schemaVersion": "2.0.0",
  "updatedAt": "2018-06-10T07:47:54.439Z"
}